:020000040800F2
:10000000005000203D3A0008591400085B14000815
:100010005D1400085F14000861140008000000006F
:100020000000000000000000000000006314000851
:100030006514000800000000671400086914000837
:10004000853A0008853A0008853A0008853A000894
:10005000853A0008853A0008853A0008853A000884
:10006000853A0008853A0008853A000871140008AE
:10007000853A0008853A0008853A0008853A000864
:10008000853A0008853A0008853A0008853A000854
:10009000853A0008853A0008853A0008853A000844
:1000A000853A0008853A0008853A0008853A000834
:1000B000853A000881140008853A0008853A00084E
:1000C000853A0008853A0008853A0008853A000814
:1000D000853A0008853A0008853A0008853A000804
:1000E000853A0008853A0008853A000800000000BB
:1000F0000000000000000000000000000000000000
:0C01000000000000000000005FF808F1A3
:1001100010B5054C237833B9044B13B10448AFF341
:1001200000800123237010BDDC01002000000000CE
:10013000DC78000808B5034B1BB103490348AFF353
:10014000008008BD00000000E0010020DC7800080D
:10015000034613F8012B002AFBD1181A0138704707
:1001600081F0004102E000BF83F0004330B54FEA68
:1001700041044FEA430594EA050F08BF90EA020FD5
:100180001FBF54EA000C55EA020C7FEA645C7FEA68
:10019000655C00F0E2804FEA5454D4EB5555B8BF8B
:1001A0006D420CDD2C4480EA020281EA030382EAFC
:1001B000000083EA010180EA020281EA0303362D8E
:1001C00088BF30BD11F0004F4FEA01314FF4801C61
:1001D0004CEA113102D0404261EB410113F0004F73
:1001E0004FEA03334CEA133302D0524263EB43032A
:1001F00094EA050F00F0A780A4F10104D5F1200EC8
:100200000DDB02FA0EFC22FA05F2801841F1000122
:1002100003FA0EF2801843FA05F359410EE0A5F1F6
:1002200020050EF1200E012A03FA0EFC28BF4CF027
:10023000020C43FA05F3C01851EBE37101F00045DD
:1002400007D54FF0000EDCF1000C7EEB00006EEBEA
:100250000101B1F5801F1BD3B1F5001F0CD3490874
:100260005FEA30004FEA3C0C04F101044FEA4452CB
:1002700012F5800F80F09A80BCF1004F08BF5FEA52
:10028000500C50F1000041EB045141EA050130BD32
:100290005FEA4C0C404141EB0101013C28BFB1F544
:1002A000801FE9D291F0000F04BF01460020B1FA8F
:1002B00081F308BF2033A3F10B03B3F120020CDA62
:1002C0000C3208DD02F1140CC2F10C0201FA0CF040
:1002D00021FA02F10CE002F11402D8BFC2F1200CA5
:1002E00001FA02F120FA0CFCDCBF41EA0C0190405B
:1002F000E41AA2BF01EB0451294330BD6FEA0404A4
:100300001F3C1CDA0C340EDC04F11404C4F120028E
:1003100020FA04F001FA02F340EA030021FA04F3A0
:1003200045EA030130BDC4F10C04C4F1200220FAF7
:1003300002F001FA04F340EA0300294630BD21FA35
:1003400004F0294630BD94F0000F83F4801306BFFB
:1003500081F480110134013D4EE77FEA645C18BFEF
:100360007FEA655C29D094EA050F08BF90EA020F86
:1003700005D054EA000C04BF1946104630BD91EA7E
:10038000030F1EBF0021002030BD5FEA545C05D181
:100390004000494128BF41F0004130BD14F58004C0
:1003A0003CBF01F5801130BD01F0004545F0FE4134
:1003B00041F470014FF0000030BD7FEA645C1ABF69
:1003C000194610467FEA655C1CBF0B46024650EAA0
:1003D000013406BF52EA033591EA030F41F40021CC
:1003E00030BD00BF90F0000F04BF0021704730B552
:1003F0004FF4806404F132044FF000054FF0000127
:1004000050E700BF90F0000F04BF0021704730B5E7
:100410004FF4806404F1320410F0004548BF4042BC
:100420004FF000013EE700BF42004FEAE2014FEA11
:1004300031014FEA02701FBF12F07F4393F07F4FEC
:1004400081F06051704732F07F4208BF704793F0EF
:100450007F4F04BF41F40021704730B54FF4607402
:1004600001F0004521F000411CE700BF50EA010205
:1004700008BF704730B54FF000050AE050EA0102AE
:1004800008BF704730B511F0004502D5404261EB1E
:1004900041014FF4806404F132045FEA915C3FF45F
:1004A000D8AE4FF003025FEADC0C18BF03325FEAFC
:1004B000DC0C18BF033202EBDC02C2F1200300FAAD
:1004C00003FC20FA02F001FA03FE40EA0E0021FAD2
:1004D00002F11444BDE600BF70B54FF0FF0C4CF4C0
:1004E000E06C1CEA11541DBF1CEA135594EA0C0F72
:1004F00095EA0C0F00F0DEF82C4481EA030621EAAD
:100500004C5123EA4C5350EA013518BF52EA0335E7
:1005100041F4801143F4801338D0A0FB02CE4FF099
:100520000005E1FB02E506F00042E0FB03E54FF0C9
:100530000006E1FB03569CF0000F18BF4EF0010EC1
:10054000A4F1FF04B6F5007F64F5407404D25FEABD
:100550004E0E6D4146EB060642EAC62141EA555170
:100560004FEAC52040EA5E504FEACE2EB4F1FD0CB2
:1005700088BFBCF5E06F1ED8BEF1004F08BF5FEA30
:10058000500E50F1000041EB045170BD06F00046E2
:1005900046EA010140EA020081EA0301B4EB5C048F
:1005A000C2BFD4EB0C0541EA045170BD41F4801187
:1005B0004FF0000E013C00F3AB8014F1360FDEBFAC
:1005C000002001F0004170BDC4F10004203C35DA88
:1005D0000C341BDC04F11404C4F1200500FA05F30B
:1005E00020FA04F001FA05F240EA020001F00042AC
:1005F00021F0004110EBD37021FA04F642EB060122
:100600005EEA430E08BF20EAD37070BDC4F10C044B
:10061000C4F1200500FA04F320FA05F001FA04F20F
:1006200040EA020001F0004110EBD37041F10001FB
:100630005EEA430E08BF20EAD37070BDC4F1200506
:1006400000FA05F24EEA020E20FA04F301FA05F26E
:1006500043EA020321FA04F001F0004121FA04F216
:1006600020EA020000EBD3705EEA430E08BF20EAE6
:10067000D37070BD94F0000F0FD101F00046400020
:1006800041EB010111F4801F08BF013CF7D041EAA2
:10069000060195F0000F18BF704703F000465200A6
:1006A00043EB030313F4801F08BF013DF7D043EA77
:1006B0000603704794EA0C0F0CEA135518BF95EA2D
:1006C0000C0F0CD050EA410618BF52EA4306D1D1B4
:1006D00081EA030101F000414FF0000070BD50EAD3
:1006E000410606BF1046194652EA430619D094EA5D
:1006F0000C0F02D150EA013613D195EA0C0F05D147
:1007000052EA03361CBF104619460AD181EA03019A
:1007100001F0004141F0FE4141F470014FF0000052
:1007200070BD41F0FE4141F4780170BD70B54FF0ED
:10073000FF0C4CF4E06C1CEA11541DBF1CEA13556D
:1007400094EA0C0F95EA0C0F00F0A7F8A4EB05044F
:1007500081EA030E52EA03354FEA013100F0888046
:100760004FEA03334FF0805545EA131343EA12630F
:100770004FEA022245EA111545EA10654FEA0026C4
:100780000EF000419D4208BF964244F1FD0404F57D
:10079000407402D25B084FEA3202B61A65EB0305D9
:1007A0005B084FEA32024FF480104FF4002CB6EB96
:1007B000020E75EB030E22BFB61A754640EA0C0016
:1007C0005B084FEA3202B6EB020E75EB030E22BF56
:1007D000B61A754640EA5C005B084FEA3202B6EB97
:1007E000020E75EB030E22BFB61A754640EA9C0056
:1007F0005B084FEA3202B6EB020E75EB030E22BF26
:10080000B61A754640EADC0055EA060E18D04FEAE3
:10081000051545EA16754FEA06164FEAC30343EA83
:1008200052734FEAC2025FEA1C1CC0D111F4801F50
:100830000BD141EA00014FF000004FF0004CB6E749
:1008400011F4801F04BF01430020B4F1FD0C88BFE8
:10085000BCF5E06F3FF6AFAEB5EB030C04BFB6EBF3
:10086000020C5FEA500C50F1000041EB045170BDE6
:100870000EF0004E4EEA113114EB5C04C2BFD4EB13
:100880000C0541EA045170BD41F480114FF0000E97
:10089000013C90E645EA060E8DE60CEA135594EA13
:1008A0000C0F08BF95EA0C0F3FF43BAF94EA0C0F16
:1008B0000AD150EA01347FF434AF95EA0C0F7FF48B
:1008C00025AF104619462CE795EA0C0F06D152EADF
:1008D00003353FF4FDAE1046194622E750EA4106C3
:1008E00018BF52EA43067FF4C5AE50EA41047FF4D4
:1008F0000DAF52EA43057FF4EBAE12E74FF0FF3C39
:1009000006E000BF4FF0010C02E000BF4FF0010C09
:100910004DF804CD4FEA410C7FEA6C5C4FEA430C82
:1009200018BF7FEA6C5C1BD001B050EA410C0CBFD1
:1009300052EA430C91EA030F02BF90EA020F002033
:10094000704710F1000F91EA030F58BF994208BF9A
:1009500090422CBFD8176FEAE37040F00100704757
:100960004FEA410C7FEA6C5C02D150EA013C07D1AE
:100970004FEA430C7FEA6C5CD6D152EA033CD3D0F9
:100980005DF8040B704700BF8446104662468C46F3
:100990001946634600E000BF01B5FFF7B7FF002826
:1009A00048BF10F1000F01BD4DF808EDFFF7F4FF4F
:1009B0000CBF012000205DF808FB00BF4DF808EDDA
:1009C000FFF7EAFF34BF012000205DF808FB00BFFD
:1009D0004DF808EDFFF7E0FF94BF012000205DF81F
:1009E00008FB00BF4DF808EDFFF7CEFF94BF0120D4
:1009F00000205DF808FB00BF4DF808EDFFF7C4FFCD
:100A000034BF012000205DF808FB00BF4FEA410C15
:100A10007FEA6C5C02D150EA013C0AD14FEA430CF8
:100A20007FEA6C5C02D152EA033C02D14FF0000035
:100A300070474FF0010070474FEA410212F5001273
:100A400015D211D56FF47873B3EB625212D94FEA15
:100A5000C12343F0004343EA505311F0004F23FAFF
:100A600002F018BF404270474FF00000704750EA54
:100A7000013005D111F0004008BF6FF00040704711
:100A80004FF00000704700BF4FEA4102B2F1E0436F
:100A900024BFB3F5001CDCF1FE5C0DD901F0004C65
:100AA0004FEAC0024CEA5070B2F1004F40EB8300B5
:100AB00008BF20F00100704711F0804F21D113F1E1
:100AC0003872BCBF01F00040704741F480114FEA1A
:100AD0005252C2F11802C2F1200C10FA0CF320FAA3
:100AE00002F018BF40F001004FEAC1234FEAD323C0
:100AF00003FA0CFC40EA0C0023FA02F34FEA43032A
:100B0000CCE77FEA625307D150EA01331EBF4FF0B2
:100B1000FE4040F44000704701F0004040F0FE40CD
:100B200040F40000704700BF80F0004002E000BFCA
:100B300081F0004142001FBF5FEA410392EA030FC8
:100B40007FEA226C7FEA236C6AD04FEA1262D2EB12
:100B50001363C1BFD218414048404140B8BF5B4217
:100B6000192B88BF704710F0004F40F4000020F0B0
:100B70007F4018BF404211F0004F41F4000121F0C6
:100B80007F4118BF494292EA030F3FD0A2F1010210
:100B900041FA03FC10EB0C00C3F1200301FA03F14E
:100BA00000F0004302D5494260EB4000B0F5000F71
:100BB00013D3B0F1807F06D340084FEA310102F130
:100BC0000102FE2A51D2B1F1004F40EBC25008BFE2
:100BD00020F0010040EA03007047490040EB0000AC
:100BE000013A28BFB0F5000FEDD2B0FA80FCACF1AD
:100BF000080CB2EB0C0200FA0CF0AABF00EBC250DA
:100C000052421843BCBFD0401843704792F0000FC7
:100C100081F4000106BF80F400000132013BB5E71A
:100C20004FEA41037FEA226C18BF7FEA236C21D090
:100C300092EA030F04D092F0000F08BF08467047F5
:100C400090EA010F1CBF0020704712F07F4F04D1C3
:100C5000400028BF40F00040704712F100723CBFD6
:100C600000F50000704700F0004343F0FE4040F400
:100C7000000070477FEA226216BF08467FEA2363BE
:100C80000146420206BF5FEA412390EA010F40F4A9
:100C9000800070474FF0000304E000BF10F00043F5
:100CA00048BF40425FEA000C08BF704743F09643DC
:100CB00001464FF000001CE050EA010208BF7047F7
:100CC0004FF000030AE000BF50EA010208BF70477E
:100CD00011F0004302D5404261EB41015FEA010C93
:100CE00002BF84460146002043F0B64308BFA3F18B
:100CF0008053A3F50003BCFA8CF2083AA3EBC2536D
:100D000010DB01FA02FC634400FA02FCC2F120028B
:100D1000BCF1004F20FA02F243EB020008BF20F0C2
:100D20000100704702F1200201FA02FCC2F1200228
:100D300050EA4C0021FA02F243EB020008BF20EA1D
:100D4000DC7070474FF0FF0C1CEAD0521EBF1CEA4B
:100D5000D15392EA0C0F93EA0C0F6FD01A4480EA39
:100D6000010C400218BF5FEA41211ED04FF0006322
:100D700043EA501043EA5111A0FB01310CF000404E
:100D8000B1F5000F3EBF490041EAD3715B0040EA74
:100D9000010062F17F02FD2A1DD8B3F1004F40EB44
:100DA000C25008BF20F00100704790F0000F0CF017
:100DB000004C08BF49024CEA502040EA51207F3ADB
:100DC000C2BFD2F1FF0340EAC250704740F40000B6
:100DD0004FF00003013A5DDC12F1190FDCBF00F0A7
:100DE00000407047C2F10002410021FA02F1C2F155
:100DF000200200FA02FC5FEA310040F1000053EAF1
:100E00004C0308BF20EADC70704792F0000F00F03E
:100E1000004C02BF400010F4000F013AF9D040EA44
:100E20000C0093F0000F01F0004C02BF490011F4D8
:100E3000000F013BF9D041EA0C018FE70CEAD153D6
:100E400092EA0C0F18BF93EA0C0F0AD030F0004C56
:100E500018BF31F0004CD8D180EA010000F000400A
:100E6000704790F0000F17BF90F0004F084691F0C8
:100E7000000F91F0004F14D092EA0C0F01D1420202
:100E80000FD193EA0C0F03D14B0218BF084608D1CB
:100E900080EA010000F0004040F0FE4040F4000015
:100EA000704740F0FE4040F4400070474FF0FF0CA8
:100EB0001CEAD0521EBF1CEAD15392EA0C0F93EAEF
:100EC0000C0F69D0A2EB030280EA010C49024FEA41
:100ED000402037D04FF0805343EA111143EA1013FA
:100EE0000CF000408B4238BF5B0042F17D024FF4B2
:100EF000000C8B4224BF5B1A40EA0C00B3EB510F8D
:100F000024BFA3EB510340EA5C00B3EB910F24BF75
:100F1000A3EB910340EA9C00B3EBD10F24BFA3EBFA
:100F2000D10340EADC001B0118BF5FEA1C1CE0D1C2
:100F3000FD2A3FF650AF8B4240EBC25008BF20F075
:100F4000010070470CF0004C4CEA50207F32C2BFC9
:100F5000D2F1FF0340EAC250704740F400004FF066
:100F60000003013A37E792F0000F00F0004C02BF97
:100F7000400010F4000F013AF9D040EA0C0093F061
:100F8000000F01F0004C02BF490011F4000F013BBB
:100F9000F9D041EA0C0195E70CEAD15392EA0C0F23
:100FA00008D142027FF47DAF93EA0C0F7FF470AF5B
:100FB000084676E793EA0C0F04D14B023FF44CAF9E
:100FC00008466EE730F0004C18BF31F0004CCAD133
:100FD00030F000427FF45CAF31F000437FF43CAF6F
:100FE0005FE700BF4FF0FF3C06E000BF4FF0010C91
:100FF00002E000BF4FF0010C4DF804CD4FEA400273
:101000004FEA41037FEA226C18BF7FEA236C11D0BC
:1010100001B052EA530C18BF90EA010F58BFB2EB6F
:10102000030088BFC81738BF6FEAE17018BF40F0EF
:10103000010070477FEA226C02D15FEA402C05D1A3
:101040007FEA236CE4D15FEA412CE1D05DF8040B28
:10105000704700BF844608466146FFE70FB5FFF7BB
:10106000C9FF002848BF10F1000F0FBD4DF808ED73
:10107000FFF7F4FF0CBF012000205DF808FB00BF64
:101080004DF808EDFFF7EAFF34BF012000205DF8BE
:1010900008FB00BF4DF808EDFFF7E0FF94BF01200B
:1010A00000205DF808FB00BF4DF808EDFFF7D2FF08
:1010B00094BF012000205DF808FB00BF4DF808ED4B
:1010C000FFF7C8FF34BF012000205DF808FB00BF18
:1010D00042000ED2B2F1FE4F0BD34FF09E03B3EBA2
:1010E000126209D44FEA002343F0004323FA02F0CE
:1010F00070474FF00000704712F1610F01D14202BA
:1011000002D14FF0FF3070474FF00000704700BF32
:1011100072B6FEE700B595B0282200210DEB020063
:1011200002F0DCFC002305930693079308930993D0
:10113000019302930393049301220A924FF48033A4
:101140000B930E920222119212934FF4E013139319
:101150000AA800F033FEC8B90F23059302210691B7
:10116000002307934FF480620892099305A801F0C9
:1011700057F868B9022301934FF40043039301A881
:1011800001F02AF930B915B05DF804FBFFF7C0FF94
:10119000FFF7BEFFFFF7BCFF08B500F0D5FDFFF776
:1011A000B9FF00F033F802F019FA00F001F901F08C
:1011B000B9FC01F0EFFD00F06BF802F089F90F487F
:1011C00000F03AFA0E4C01228021204601F00EFB7D
:1011D00000224021204601F009FB0A4C0021204654
:1011E00000F0E6FC0421204600F0E2FC0821204645
:1011F00000F0DEFC044802F0A1FBFEE74002002004
:1012000000080140F80100207403002070B588B088
:10121000002204920592069207921B4B996941F0B5
:1012200020019961996901F0200101910199996961
:1012300041F004019961996901F004010291029958
:10124000996941F0080199619B6903F008030393D0
:10125000039B0E4CC021204601F0C8FA40230493A2
:101260000126059606960225079504A9204601F059
:10127000ABF98023049305960695079504A92046AB
:1012800001F0A2F908B070BD001002400008014052
:1012900000B587B000230293039304930593009352
:1012A00001931448144A02604360836040F29352F1
:1012B000C2600361836100F0E9FA90B94FF4805392
:1012C000029302A90B4800F0E5FB68B900230093E4
:1012D00001936946074800F0D9FC40B907B05DF8B2
:1012E00004FBFFF715FFE9E7FFF712FFEEE7FFF753
:1012F0000FFFF3E740020020000400400368B3F151
:10130000804F00D0704782B003F50433DA6942F0B1
:101310000102DA61DB6903F001030193019B02B072
:101320007047000002680E4B9A4200D0704700B52B
:1013300083B003F50333DA6942F00202DA61DB6954
:1013400003F002030193019B002211461D2001F0CE
:101350003DFB1D2001F072FB03B05DF804FB00BFF4
:101360000004004000B587B0002302930393049368
:1013700005930368B3F1804F02D007B05DF804FB1A
:1013800003F504339A6942F004029A619B6903F001
:1013900004030193019B0723029302230393059304
:1013A00002A9024801F010F9E7E700BF0008014078
:1013B00000B58BB000230893099301930293039324
:1013C000049305930693079322484FF080420260EE
:1013D000012242602022826040F2DB52C26003613F
:1013E000836100F07FFA28BB00230893099308A9C2
:1013F000184800F04BFC00BB7023019300220292BE
:101400000392059201A9134800F0CAFAC0B9042258
:101410000DEB02010F4800F0C3FAA0B9082201A9A0
:101420000C4800F0BDFA88B90A48FFF79BFF0BB0E3
:101430005DF804FBFFF76CFED6E7FFF769FEDBE71C
:10144000FFF766FEE3E7FFF763FEE7E7FFF760FEFF
:10145000EAE700BFF8010020FEE7FEE7FEE7FEE74F
:10146000FEE770477047704708B500F07FFC08BD85
:1014700008B5024801F0F6F908BD00BFA40300203A
:1014800008B5024800F010F908BD00BF4002002076
:1014900082B00E4B9A6942F001029A619A6902F099
:1014A00001020092009ADA6942F08052DA61DB6947
:1014B00003F080530193019B054A536823F0E063D6
:1014C00043F00073536002B0704700BF0010024049
:1014D0000000014070B4036A026A22F00102026255
:1014E0004668826922F073020C6844EA020523F020
:1014F00002028B6813430D4CA04209D00B4CA04252
:101500000DD0466085614A684263036270BC7047D3
:1015100023F00803CA68134323F00403EEE726F41C
:1015200040764A6932438E691643EAE7002C01404F
:1015300030B4036A026A22F4807202624568C269AA
:1015400022F073020C68224323F400738C6843EA90
:1015500004230F4CA04209D00D4CA0420ED0456090
:10156000C2614A68C263036230BC704723F40063FF
:10157000CC6843EA042323F48063EDE725F4405567
:101580004C6945EA04158C6945EA0415E7E700BF94
:10159000002C014030B4036A026A22F480520262D5
:1015A0004468C26922F4E6420D6842EA052223F447
:1015B00000538D6843EA0533074DA84206D04460C6
:1015C000C2614A680264036230BC704724F48044FC
:1015D0004D6944EA8514F2E7002C014010B4036A17
:1015E000046A24F001040462846924F0F00C4CEADB
:1015F000021223F00A030B438261036210BC70479E
:1016000010B4036A046A24F010040462846924F4A8
:10161000704C4CEA023223F0A00343EA01138261CA
:10162000036210BC7047836823F070030B4343F0E0
:10163000070383607047000090F83D30DBB2012B58
:1016400027D1022380F83D300268D36843F00103BC
:10165000D3600368114A934210D0B3F1804F0DD08C
:10166000A2F59432934209D002F58062934205D0EC
:101670001A6842F001021A60002070479A6802F06E
:101680000702062A07D01A6842F001021A600020F9
:101690007047012070470020704700BF002C0140B8
:1016A000704770477047704770B504460368DE683E
:1016B0001D6915F0020F10D016F0020F0DD06FF05B
:1016C00002021A610123037703689B6913F0030F79
:1016D0005ED0FFF7E6FF0023237715F0040F12D04A
:1016E00016F0040F0FD023686FF004021A61022372
:1016F000237723689B6913F4407F4FD02046FFF780
:10170000D0FF0023237715F0080F12D016F0080F32
:101710000FD023686FF008021A610423237723682F
:10172000DB6913F0030F40D02046FFF7BAFF002318
:10173000237715F0100F12D016F0100F0FD023687A
:101740006FF010021A61082323772368DB6913F412
:10175000407F31D02046FFF7A4FF0023237715F008
:10176000010F02D016F0010F2DD115F0800F02D01D
:1017700016F0800F2FD115F0400F02D016F0400F59
:1017800031D115F0200F02D016F0200F33D170BDEB
:10179000FFF786FF2046FFF785FF9CE72046FFF70F
:1017A0007FFF2046FFF77EFFABE72046FFF778FF7D
:1017B0002046FFF777FFBAE72046FFF771FF204684
:1017C000FFF770FFC9E723686FF001021A61204636
:1017D00001F072FEC9E723686FF080021A612046AB
:1017E00000F08BFAC7E723686FF040021A612046C9
:1017F000FFF759FFC5E723686FF020021A61204602
:1018000000F07AFAC3E7000003681F4A90420AD04A
:10181000B0F1804F07D0A2F59432904203D002F588
:101820008062904203D123F070034A681343164A42
:1018300090420AD0B0F1804F07D0A2F59432904286
:1018400003D002F58062904203D123F44073CA684A
:10185000134323F080034A69134303608B68C36218
:101860000B688362084B98420AD0012343610369E5
:1018700013F0010F03D0036923F0010303617047E4
:101880000B690363F1E700BF002C014040B310B5C2
:10189000044690F83D30F3B1022384F83D302146F0
:1018A00051F8040BFFF7B0FF012384F8463084F8A9
:1018B0003E3084F83F3084F8403084F8413084F87A
:1018C000423084F8433084F8443084F8453084F85A
:1018D0003D30002010BD80F83C30FFF723FDDBE7F2
:1018E0000120704740B310B5044690F83D30F3B185
:1018F000022384F83D30214651F8040BFFF784FFA2
:10190000012384F8463084F83E3084F83F3084F870
:10191000403084F8413084F8423084F8433084F811
:10192000443084F8453084F83D30002010BD80F804
:101930003C30FFF7E3FCDBE70120704730B4036A7B
:10194000026A22F0100202624468826922F4E642CE
:101950000D6842EA052223F020038D6843EA05134F
:101960000E4DA84209D00D4DA8420ED044608261B0
:101970004A688263036230BC704723F08003CD68FD
:1019800043EA051323F04003EDE724F440644D6976
:1019900044EA85048D6944EA8504E7E7002C0140A8
:1019A00038B590F83C30012B66D004460D46012333
:1019B00080F83C300C2A5AD8DFE802F00759595910
:1019C0001B5959593059595944000068FFF782FD95
:1019D0002268936943F0080393612268936923F0B6
:1019E000040393612268936929690B439361002082
:1019F0003EE00068FFF7A2FF2268936943F40063AA
:101A000093612268936923F48063936122689369E8
:101A1000296943EA01239361002029E00068FFF768
:101A200087FD2268D36943F00803D3612268D36934
:101A300023F00403D3612268D36929690B43D3617E
:101A4000002015E00068FFF7A5FD2268D36943F484
:101A50000063D3612268D36923F48063D361226871
:101A6000D369296943EA0123D361002000E0012002
:101A7000002384F83C3038BD0220FCE710B48468B1
:101A800024F47F4C42EA03220A4342EA0C028260B9
:101A900010BC704790F83C30012B78D010B504464C
:101AA000012380F83C30022380F83D3002689368BF
:101AB00023F47F4323F0770393600B68602B4CD0B3
:101AC00029D8402B54D00CD9502B22D1CA68496850
:101AD0000068FFF783FD50212068FFF7A4FD002078
:101AE00005E0202B0DD009D9302B0AD0012001238D
:101AF00084F83D30002384F83C3010BD0BB1102B2E
:101B000005D119462068FFF78EFD0020EFE7012080
:101B1000EDE70120EBE7B3F5805F34D0B3F5005F6C
:101B20000CD1CB684A6889680068FFF7A7FF226874
:101B3000936843F4804393600020D8E7702B24D14E
:101B4000CB684A6889680068FFF798FF2268936845
:101B500043F0770393600020C9E7CA6849680068CA
:101B6000FFF74EFD60212068FFF75DFD0020BEE716
:101B7000CA6849680068FFF731FD40212068FFF717
:101B800052FD0020B3E70020B1E70120AFE70220BB
:101B9000704701F01F01012303FA01FC036A23EAE5
:101BA0000C030362036A02FA01F10B4303627047FC
:101BB00010B50446084651BB94F83E30DBB2013BF9
:101BC00018BF0123002B5BD1002839D1022384F8F0
:101BD0003E30012201462068FFF7DBFF23682A4AD6
:101BE00093423DD02368284A93423ED0B3F1804FC0
:101BF0003BD0A2F59432934237D002F580629342F3
:101C000033D01A6842F001021A60002039E004293A
:101C100008D008290DD094F84130DBB2013B18BF41
:101C20000123CFE794F83F30DBB2013B18BF01231B
:101C3000C8E794F84030DBB2013B18BF0123C1E78D
:101C4000042805D0082807D0022384F84130C0E7D3
:101C5000022384F83F30BCE7022384F84030B8E721
:101C60005A6C42F400425A64BCE79A6802F00702D8
:101C7000062A07D01A6842F001021A60002000E02C
:101C8000012010BD0020FCE7002C014090F83C3002
:101C9000012B2CD010B4012380F83C30022380F8B3
:101CA0003D3003685A689C6822F0700C0A6842EA6A
:101CB0000C025A6003680F4A93420AD0B3F1804F76
:101CC00007D0A2F59432934203D002F5806293428A
:101CD00004D124F080044A6814439C60012380F8F6
:101CE0003D30002380F83C30184610BC704702207D
:101CF000704700BF002C01407047704710B5044684
:101D00000E4B18784FF47A73B3FBF0F30C4A10685B
:101D1000B0FBF3F000F0A0FE68B90F2C01D9012050
:101D20000AE0002221464FF0FF3000F04FFE054B45
:101D30001C60002000E0012010BD00BF000000205A
:101D4000080000200400002008B5074A136843F08B
:101D500010031360032000F027FE0F20FFF7CEFFD3
:101D6000FFF796FB002008BD00200240034A1168DF
:101D7000034B1B780B441360704700BF88020020A0
:101D800000000020014B1868704700BF8802002047
:101D900082B0084B1B68084AA2FB03235B0A00FBC6
:101DA00003F3019300BF019B5A1E0192002BF9D14E
:101DB00002B0704708000020D34D6210002800F0E8
:101DC000F18170B582B00446036813F0010F2CD086
:101DD000994B5B6803F00C03042B1DD0964B5B689A
:101DE00003F00C03082B12D06368B3F5803F41D099
:101DF000002B55D103F1804303F504331A6822F414
:101E000080321A601A6822F480221A6037E08A4B06
:101E10005B6813F4803FE7D0874B1B6813F4003FE7
:101E200003D06368002B00F0BF81236813F0020F1A
:101E300075D0814B5B6813F00C0F5FD07E4B5B68F5
:101E400003F00C03082B54D02369002B00F08A8088
:101E50007A4B01221A60FFF795FF0546764B1B6807
:101E600013F0020F75D1FFF78DFF401B0228F5D943
:101E700003209EE1704A136843F480331360636863
:101E800043B3FFF77FFF05466B4B1B6813F4003F1E
:101E9000CBD1FFF777FF401B6428F5D9032088E1F9
:101EA000B3F5A02F09D0644B1A6822F480321A606F
:101EB0001A6822F480221A60E1E703F18043A3F557
:101EC0003C331A6842F480221A601A6842F4803265
:101ED0001A60D4E7FFF756FF0546574B1B6813F40B
:101EE000003FA2D0FFF74EFF401B6428F5D9032026
:101EF0005FE1514B5B6813F4803FA5D14E4B1B68EB
:101F000013F0020F03D02369012B40F04F814A4A9E
:101F1000136823F0F803616943EAC103136023687F
:101F200013F0080F33D0A369002B5CD0434B012280
:101F3000C3F88024FFF726FF05463F4B5B6A13F08A
:101F4000020F21D1FFF71EFF401B0228F5D9032005
:101F50002FE1394A136823F0F803616943EAC103AA
:101F60001360DCE7354B00221A60FFF70BFF0546D4
:101F7000314B1B6813F0020FD1D0FFF703FF401B5A
:101F80000228F5D9032014E10120FFF701FF23689F
:101F900013F0040F00F09680274BDB6913F0805F8D
:101FA00034D1254BDA6942F08052DA61DB6903F003
:101FB00080530193019B0125214B1B6813F4807F03
:101FC00026D0E368012B3DD0002B53D103F1804391
:101FD00003F504331A6A22F001021A621A6A22F027
:101FE00004021A6233E0154B0022C3F88024FFF785
:101FF000C9FE0546104B5B6A13F0020FC7D0FFF70E
:10200000C1FE401B0228F5D90320D2E00025D3E70A
:102010000B4A136843F480731360FFF7B3FE064660
:10202000074B1B6813F4807FCBD1FFF7ABFE801BFF
:102030006428F5D90320BCE00010024000004242B1
:10204000007000405F4A136A43F001031362E368C3
:1020500033B3FFF797FE06465A4B1B6A13F0020F85
:102060002FD1FFF78FFE801B41F288339842F3D9BE
:1020700003209EE0052B09D0524B1A6A22F0010280
:102080001A621A6A22F004021A62E0E74D4B1A6AD9
:1020900042F004021A621A6A42F001021A62D6E79A
:1020A000FFF770FE0646474B1B6A13F0020F08D07D
:1020B000FFF768FE801B41F288339842F3D9032072
:1020C00077E0E5B9E369002B72D03E4A526802F02E
:1020D0000C02082A56D0022B17D03B4B00221A665E
:1020E000FFF750FE0446374B1B6813F0007F47D0C4
:1020F000FFF748FE001B0228F5D9032059E0314ABA
:10210000D36923F08053D361DCE72F4B00221A669A
:10211000FFF738FE05462B4B1B6813F0007F06D0F7
:10212000FFF730FE401B0228F5D9032041E0236A67
:10213000B3F5803F1AD023494B6823F47413226A05
:10214000606A024313434B601F4B01221A66FFF77C
:1021500019FE04461B4B1B6813F0007F0ED1FFF7DE
:1021600011FE001B0228F5D9032022E0154A53680E
:1021700023F40033A1680B435360DCE7002018E030
:10218000002016E0012B16D00E4B5B6803F4803163
:10219000226A914211D103F47013626A93420ED104
:1021A000002006E001207047012002E0012000E04D
:1021B000002002B070BD0120FBE70120F9E70120FB
:1021C000F7E700BF00100240000042420F4B5B687F
:1021D00003F00C02082A01D00D487047C3F3834274
:1021E0000C49885C13F4803F0BD0084B5B68C3F349
:1021F0004043094AD35C064A02FB00F0B0FBF3F00F
:102200007047064B03FB00F0704700BF0010024010
:1022100000127A00F87800080879000800093D00EB
:10222000002800F0A08070B50D460446524B1B6894
:1022300003F007038B420BD24F4A136823F00703C6
:102240000B431360136803F007038B4240F08D804B
:10225000236813F0020F17D013F0040F04D0474A7D
:10226000536843F4E0635360236813F0080F04D00D
:10227000424A536843F460535360404A536823F022
:10228000F003A1680B435360236813F0010F31D0B2
:102290006368012B20D0022B25D0384A126812F037
:1022A000020F64D035494A6822F0030213434B60A1
:1022B000FFF768FD0646314B5B6803F00C0362686C
:1022C000B3EB820F16D0FFF75DFD801B41F2883320
:1022D0009842F0D9032045E0284A126812F4003FE2
:1022E000E0D101203EE0254A126812F0007FD9D1EA
:1022F000012037E0204B1B6803F00703AB420AD9EB
:102300001D4A136823F007032B431360136803F07F
:102310000703AB422DD1236813F0040F06D0174AF0
:10232000536823F4E063E1680B435360236813F0C0
:10233000080F07D0114A536823F46053216943EA18
:10234000C1035360FFF742FF0C4B5B68C3F30313F9
:102350000B4AD35CD8400B4B18600B4B1868FFF747
:10236000CDFC002070BD012070470120FAE701205C
:10237000F8E70120F6E700BF00200240001002400D
:10238000207900080800002004000020014B186894
:10239000704700BF0800002008B5FFF7F7FF044BA7
:1023A0005B68C3F30223034AD35CD84008BD00BF77
:1023B000001002403079000808B5FFF7E7FF044B32
:1023C0005B68C3F3C223034AD35CD84008BD00BF97
:1023D000001002403079000870B582B004460368EE
:1023E00013F0010F36D03F4BDB6913F0805F49D10A
:1023F0003C4BDA6942F08052DA61DB6903F08053CA
:102400000193019B0125384B1B6813F4807F3BD05F
:10241000344B1B6A13F4407313D0626802F44072A9
:102420009A420ED02F4A136A23F440702F49012696
:10243000C1F840640026C1F84064106213F0010F37
:1024400036D1284A136A23F4407361680B43136240
:10245000002D3ED1236813F0020F06D0214A5368A5
:1024600023F44043A1680B435360236813F0100F1B
:1024700034D01C4A536823F48003E1680B43536053
:1024800000202CE00025BEE7174A136843F4807350
:102490001360FFF777FC0646134B1B6813F4807F2D
:1024A000B6D1FFF76FFC801B6428F5D9032016E036
:1024B000FFF768FC06460B4B1B6A13F0020FC0D1F6
:1024C000FFF760FC801B41F288339842F3D9032068
:1024D00005E0D36923F08053D361BBE7002002B04D
:1024E00070BD00BF0010024000700040000042427A
:1024F00008B502284ED0102803D0012828D000208B
:1025000008BD2B4B5A68186810F08070F8D0C2F3E1
:1025100083432849C85C12F4803F15D0244B5B6884
:10252000C3F34043244AD25C244BB3FBF2F303FBD6
:1025300000F01F4B5B6813F4800FE1D14000204B8B
:10254000A3FB00304008DBE71E4B03FB00F0F0E785
:10255000174B1B6A40F202321A40B2F5817F24D039
:1025600003F44073B3F5007F04D0B3F5407F09D086
:102570000020C5E70E4A526A12F0020FF5D049F664
:102580004040BDE70A4B186810F40030B8D04FF255
:102590002440B5E7FFF710FF054B5B68C3F38133B9
:1025A00001335B00B0FBF3F0AAE74FF40040A7E76C
:1025B000001002400C7900081C79000800127A0013
:1025C000ABAAAAAA00093D0070B582B00024A446B7
:1025D000A6E0804DAA4210D007D97F4DAA420CD068
:1025E00005F58035AA4208D013E0A5F58015AA426A
:1025F00003D005F57025AA4207D18A68002A58D071
:10260000012A51D04361082403E0A5F58015AA42B0
:10261000F3D0BEF1FF0F4ED80646BEF1FF0F4CD8E7
:102620004FEA8C0233680F25954023EA050304FA2C
:1026300002F2134333604B6813F0805F6ED0674B38
:102640009A6942F001029A619B6903F001030193C8
:10265000019B4FEA9C02951C614B53F825600CF0DE
:1026600003039D000F23AB4026EA03065D4B98420F
:1026700029D003F58063984200F08E8003F58063D3
:10268000984200F08B8003F58063984219D00423B0
:102690001AE0CC68BDE7CC680434BAE7CC680834EB
:1026A000B7E7CC680C34B4E703610824B1E7002431
:1026B000AFE70424ADE7061DAFE7ACF108029200D6
:1026C000B0E7032300E00023AB4033430232444D24
:1026D00045F822304B6813F4801F61D0424A93685A
:1026E00043EA0E0393604B6813F4001F5ED03E4A2A
:1026F000D36843EA0E03D3604B6813F4003F5BD00A
:10270000394A536843EA0E0353604B6813F4803F21
:1027100058D0354A136843EA0E0313600CF1010CDC
:102720000A6832FA0CF353D0012303FA0CF302EADD
:10273000030E33EA0202F1D14A68122A3FF649AF8A
:10274000122A3FF666AF01A555F822F0FB250008D6
:10275000932600089D260008AF26000813260008CF
:102760001326000813260008132600081326000865
:102770001326000813260008132600081326000855
:102780001326000813260008132600081326000845
:1027900097260008A3260008012395E7022393E764
:1027A000114A936823EA0E0393609CE70E4AD368AC
:1027B00023EA0E03D3609FE70B4A536823EA0E0314
:1027C0005360A2E7084A136823EA0E031360A5E7E3
:1027D00002B070BD00002210000031100010024055
:1027E0000000014000080140000401400AB10161FD
:1027F000704709040161704760B310B40246016874
:10280000154B0B441548A0FB03031B099B001364E5
:10281000134BD363022382F82130086820F47F50E1
:1028200020F03000536894682343D468234314692C
:1028300023435469234394692343D46923430343C3
:102840000B6000209063012382F8213082F8200081
:1028500010BC704701207047F8FFFDBFCDCCCCCC39
:102860000000024038B5C36B1A6804682568016C23
:1028700004238B40134235D015F0040F32D0236867
:1028800013F0200F03D1236823F0040323600368AF
:10289000434A934214D01432934218D014329342D4
:1028A00017D01432934217D01432934217D01432F7
:1028B000934202D04FF0806203E04FF4800200E0C8
:1028C0000422384B5A60C36A03B1984738BD40228E
:1028D000F7E74FF48062F4E74FF48042F1E74FF4FA
:1028E0008022EEE702238B4013423CD015F0020F0A
:1028F00039D0236813F0200F06D1236823F00A0390
:102900002360012380F821300368254A934214D0C4
:10291000143293421CD0143293421BD0143293428F
:102920001BD0143293421BD01432934202D04FF08A
:10293000007203E04FF4001200E00222194B5A60CB
:10294000002380F82030836A002BBFD09847BDE772
:102950002022F3E74FF40072F0E74FF40052EDE766
:102960004FF40032EAE7082303FA01F11142ADD037
:1029700015F0080FAAD0236823F00E032360026C21
:10298000C16B012303FA02F24A60836380F82130AD
:10299000002380F82030036B002B97D0984795E7F1
:1029A0000800024000000240074AD36823F4E063B5
:1029B0001B041B0C000200F4E060034343F0BF6300
:1029C00043F40033D360704700ED00E000B5194BCD
:1029D000DB68C3F30223C3F1070CBCF1040F28BF6B
:1029E0004FF0040C03F1040EBEF1060F18D9033B9F
:1029F0004FF0FF3E0EFA0CFC21EA0C0199400EFA52
:102A000003F322EA0303194300280BDB0901C9B2CF
:102A100000F1604000F5614080F800135DF804FBB0
:102A20000023E5E700F00F000901C9B2024B195479
:102A3000F4E700BF00ED00E014ED00E0002807DB44
:102A400000F01F02400901239340024A42F820305F
:102A5000704700BF00E100E00138B0F1807F0BD289
:102A60004FF0E0235861054AF02182F8231000203E
:102A7000986107221A6170470120704700ED00E05D
:102A80007047000010B503460C4A0D490D48006818
:102A900040B10C4800680344521A934206D8094AD0
:102AA000136010BD0748084C0460F2E700F0ECFF2B
:102AB0000C2303604FF0FF30F3E700BF005000200D
:102AC000000400008C020020F80300200120704761
:102AD00008B500F0D9FF162303604FF0FF3008BDA2
:102AE00008B54FF0FF31FFF7F3FFFEE770B50C4676
:102AF0001646002506E0AFF30080214601F8010BE1
:102B000001350C46B542F6DB304670BD4FF0FF3064
:102B100070474FF400534B6000207047012070470E
:102B20000020704708B50B480B4B03600B4B43600C
:102B300000238360C3604FF480420261436183617C
:102B4000C361036200F048F800B908BDFEF7E0FA7F
:102B5000FBE700BF9002002000540040801A0600EE
:102B600010B586B000230293039304930593026883
:102B7000154B9A4201D006B010BD144CA36943F026
:102B80000803A361A36903F008030093009B4FF4BB
:102B900040730293122303930323059302A90C4865
:102BA000FFF712FD0B4A536843F0E06343F0020362
:102BB0005360E36943F40013E361E36903F4001332
:102BC0000193019BD7E700BF005400400010024072
:102BD000000C014000000140002800F0CC8070B5DE
:102BE000044690F83D30002B77D0242384F83D3004
:102BF0002268136823F0010313602268136843F40A
:102C0000004313602268136823F400431360FFF746
:102C1000C3FB62685A4B9A4264D85A4B98428CBFA5
:102C200000230123002B40F0A8805749A1FB00316D
:102C30008B0C25686A6822F03F0242EA91426A6082
:102C400021680A6A22F03F0266684D4DAE424FD8B5
:102C5000013313430B622168CA6922F44F4222F008
:102C6000FF026668464B9E424CD8431E7600B3FB7B
:102C7000F6F3013340F6FC70034278D0C3F30B0344
:102C80001343CB6121680B6823F0C003E269206A1B
:102C9000024313430B6021688B6823F4034323F042
:102CA000FF032269E068024313438B602168CB680D
:102CB00023F0FF036269A06902431343CB602268DB
:102CC000136843F00103136000202064202384F87C
:102CD0003D30206384F83E0070BD80F83C30FFF743
:102CE0003FFF82E7294B98428CBF0023012399E7DD
:102CF0004FF4967505FB03F3254DA5FB03539B0984
:102D00000133A6E7A368BBB9451E06EB460CB5FB2D
:102D1000FCF50135C5F30B05B5FA85F56D0945BB25
:102D2000C3B9013806EB4603B0FBF3F30133C3F339
:102D30000B0343F40043A3E7451E06EB860C0CEBA4
:102D40008C0CB5FBFCF50135C5F30B05B5FA85F523
:102D50006D09E4E7013806EB860303EB8303B0FB60
:102D6000F3F30133C3F30B0343F4404388E7042335
:102D700086E7012384E7012070470120ACE700BF0C
:102D8000A08601007F841E0083DE1B43FF083D00F8
:102D9000D34D621008B50A480A4B03604FF4E13383
:102DA000436000238360C36003610C22426183613E
:102DB000C36100F002F900B908BDFEF7A9F9FBE70D
:102DC000E40200200038014010B586B000230293D1
:102DD0000393049305930268174B9A4201D006B0FF
:102DE00010BD03F558439A6942F480429A619A698A
:102DF00002F480420092009A9A6942F004029A61B9
:102E00009B6903F004030193019B4FF40073029349
:102E10000223039303230593084C02A92046FFF7DE
:102E2000D3FB4FF48063029300230393049302A91E
:102E30002046FFF7C9FBD2E70038014000080140F7
:102E4000026802F10C0353E8003F23F490730C3244
:102E500042E800310029F3D1026802F1140353E87B
:102E6000003F23F00103143242E800310029F3D17E
:102E7000036B012B05D0202380F84230002303632D
:102E80007047026802F10C0353E8003F23F010037F
:102E90000C3242E800310029F3D1ECE710B50446CA
:102EA0000268136923F44053C1680B4313618368BC
:102EB0000269134342691A430168CB6823F4B05393
:102EC00023F00C031343CB600268536923F440736F
:102ED00081690B4353610268134B9A4220D0FFF77C
:102EE0005BFA024602EB820202EB820263689B00FD
:102EF000B2FBF3F20D48A0FB02314909642303FB46
:102F000011231B013233A0FB03235B0903F0F00202
:102F100002EB011203F00F03216813448B6010BD14
:102F2000FFF74AFA0246DDE7003801401F85EB5102
:102F30002DE9F04383B005460E4617469946DDF865
:102F400028802C68246836EA04030CBF4FF0010C7B
:102F50004FF0000CBC4528D1B8F1FF3FF1D0FEF78F
:102F600011FFA0EB0900404523D8B8F1000F22D093
:102F70002B68DA6812F0040FE3D0802EE1D0402EE7
:102F8000DFD01A6812F0080FDBD0002401941A6811
:102F900001925B680193019B2846FFF751FF0823CC
:102FA0006B6485F84040012000E0002003B0BDE8DC
:102FB000F0830320FAE70320F8E760B310B5044676
:102FC00090F8413013B3242384F841302268D36849
:102FD00023F40053D3602046FFF760FF2268136993
:102FE00023F4904313612268536923F02A03536149
:102FF0002268D36843F40053D36000206064202328
:1030000084F8413084F84230606310BD80F840306D
:10301000FFF7DAFED7E7012070472DE9F04182B0D3
:103020001E4690F84130DBB2202B56D104460D46A7
:103030009046002955D00AB901204FE0002343648F
:10304000212380F84130FEF79DFE0746A4F8248036
:10305000A4F82680A368B3F5805F02D04FF0000883
:1030600014E023692BB34FF000080FE0202384F80D
:103070004130032032E038F8023B2268C3F30803F2
:103080005360E28C92B2013A92B2E284E38C9BB23A
:1030900093B100963B46002280212046FFF748FF6F
:1030A0000028E3D1002DE6D015F8012B23685A60E3
:1030B000E7E7A8460025E9E700963B4600224021C5
:1030C0002046FFF735FF18B9202384F8413005E08A
:1030D000202384F84130032000E0022002B0BDE844
:1030E000F0810120FAE7000010B51446064B1B687A
:1030F0001B6813F0400FF9D0FF23A2B20248FFF77C
:103100008CFF204610BD00BFE40200202DE9F84FDF
:1031100004460D460068FDF787F906460F46A0688D
:10312000FDF782F98046894603F0EEF902460B4628
:1031300030463946FDF7D0F982468B466068FDF788
:1031400073F906460F464046494603F02FFA0246F9
:103150000B4630463946FDF7BFF902460B4650464E
:103160005946FDF701F8FDF78FFC28602068FDF750
:103170005BF906460F46A068FDF756F9804689467A
:1031800003F014FA02460B4630463946FDF7A4F91F
:1031900082468B466068FDF747F906460F46404673
:1031A000494603F0B1F902460B4630463946FDF771
:1031B00093F902460B4650465946FCF7D7FFFDF7F8
:1031C00063FC6860BDE8F88F2DE9F04782B002AB80
:1031D00003E903001546DDF8049033490098FDF734
:1031E000B1FD06464FF07C514846FDF7ABFD044665
:1031F00001463046FDF79CFC804631460020FDF735
:1032000097FC82462146FDF793FC0746274948462E
:10321000FDF798FD686021463046FDF78BFC234999
:10322000FDF790FDA86051462046FDF783FC1F493D
:10323000FDF788FDE86000214846FDF73FFFC8B173
:10324000012400214046FDF739FFA8B101260021E5
:103250003846FDF733FF88B1012306EB430304EB47
:103260004303DBB2013B052B0CD8DFE803F00E1A59
:10327000091411170024E4E70026E8E70023ECE72F
:1032800001232B7002B0BDE8F08702232B70F9E711
:1032900003232B70F6E704232B70F3E705232B7031
:1032A000F0E706232B70EDE77DB35D3F0080D84348
:1032B0002DE9F84304460E4605786B1E052B08D809
:1032C000DFE803F06503756D7D5DC36803618368A6
:1032D0004361D4F81090D4F8148041464846FDF775
:1032E00029FC07464F49FDF7E9FEB0B14D49484674
:1032F000FDF728FD3946FDF7D9FD0746206149490C
:103300004046FDF71FFD814639464046FDF712FC59
:1033100001464846FDF7CAFD6061276939464148C4
:10332000FDF706FCD4F814904946FDF701FC4FF078
:103330007C51FDF707FDA0614FF07C51FDF702FDC8
:103340008046E0614FF07C513846FDF7FBFC0146BA
:103350004046FDF7EFFB074620624FF07C514846A0
:10336000FDF7F0FC01463846FDF7E4FB6062013DE5
:10337000052D34D8DFE805F03C2E49434F358368EE
:10338000036141680020FDF7D3FB6061A1E7C168DC
:103390000020FDF7CDFB20616368636199E7416818
:1033A0000020FDF7C5FB2061E368636191E7436896
:1033B000036181680020FDF7BBFB606189E78168DC
:1033C0000020FDF7B5FB2061E1680020FDF7B0FBB0
:1033D00060617EE73760E3697360636AB360BDE88C
:1033E000F883C6F80080636A7360236AB360F6E707
:1033F000C6F80080236A7360636AB360EFE73060E9
:10340000236A7360E369B360E9E73060E36973607E
:10341000236AB360E3E73760636A7360E369B360AC
:10342000DDE700BF00803B4570B51D4CA068FCF790
:10343000FBFF19A3D3E90023FCF798FEFDF724FB5B
:10344000A060184B6360184D29462046FFF75EFECA
:10345000164E324695E80300FFF7B6FE144D294696
:103460003046FFF725FF2868FDF732FE4FF0804613
:1034700070636868FDF72CFEB063A868FDF728FE4E
:10348000F0630C49A068FDF70FFE08B10022A260AE
:1034900070BD00BFAFF3008083558B8E49985C3FB1
:1034A00034030020000060402C0300204C03002067
:1034B00040030020C50EC94008B50268034B9A427C
:1034C00000D008BDFFF7B0FFFBE700BF00040040DD
:1034D00000B585B000230193029303931748184A5F
:1034E00002604FF480728260037303754FF46022B0
:1034F000C26143600223036100F09CF9A8B908236C
:10350000019301230293039301A90C4800F080F872
:1035100070B9092301930223029301A9074800F01F
:1035200077F840B905B05DF804FBFDF7F1FDE6E77B
:10353000FDF7EEFDEDE7FDF7EBFDF3E7740300208B
:103540000024014010B586B0002302930393049336
:10355000059302681D4B9A4201D006B010BD044687
:1035600003F56C439A6942F400729A619A6902F415
:1035700000720092009A9A6942F008029A619B696F
:1035800003F008030193019B03230293039302A911
:103590000F48FFF719F80F480F4B036000234360F3
:1035A00083608022C2604FF4807202614FF48062B7
:1035B000426120228261C361FFF71EF918B9054BF1
:1035C00023625C62C9E7FDF7A3FDF8E70024014030
:1035D000000C0140A40300200800024000B583B0A5
:1035E0000A4B5A6942F001025A615B6903F0010318
:1035F0000193019B002211460B20FFF7E7F90B20F6
:10360000FFF71CFA03B05DF804FB00BF0010024096
:1036100030B482B00022019290F82420012A00F0F8
:1036200091800346012280F824204A68062A2DD87A
:103630000468606B02EB8202053A4FF01F0C0CFA33
:1036400002FC20EA0C000D6805FA02F202436263F4
:103650000A68092A3AD91C68E06802EB42021E3A5D
:103660004FF0070C0CFA02FC20EA0C008D6805FAFA
:1036700002F20243E2600A68103A012A36D90020B9
:10368000002283F8242002B030BC70470C2A0ED8E8
:103690000568286B02EB8202233A1F24944020EA3B
:1036A00004000C6804FA02F202432A63D0E70568BA
:1036B000E86A02EB8202413A1F24944020EA0400A7
:1036C0000C6804FA02F20243EA62C1E71C6820694E
:1036D00002EB42024FF0070C0CFA02FC20EA0C004D
:1036E0008D6805FA02F202432261C4E71A6816489F
:1036F000824205D09A6A42F020029A620120BFE716
:10370000906810F4000F1BD1906840F400009060A6
:103710000A68102A01D00020B2E70C4A12680C494E
:10372000A1FB0212920C02EB82025200019202E013
:10373000019A013A0192019A002AF9D100209FE7EB
:1037400000209DE702209EE70024014008000020A1
:1037500083DE1B4330B583B00023019303689A686E
:1037600012F0010F33D104469A6842F001029A60C8
:10377000184B1B68184AA2FB03239B0C019302E021
:10378000019B013B0193019B002BF9D1FEF7FAFA53
:10379000054623689B6813F0010F16D1FEF7F2FA75
:1037A000431B022BF5D923689B6813F0010FF0D15E
:1037B000A36A43F01003A362E36A43F00103E362E8
:1037C000002384F82430012002E0002000E00020E3
:1037D00003B030BD0800002083DE1B4338B503680A
:1037E0009A6812F0010F01D1002038BD04469A6892
:1037F00022F001029A60FEF7C5FA054623689B682D
:1038000013F0010F13D0FEF7BDFA431B022BF5D9BD
:1038100023689B6813F0010FF0D0A36A43F01003F4
:10382000A362E36A43F00103E3620120DDE70020C5
:10383000DBE7000000287BD070B50446836A002BCC
:103840004DD02046FFF7CAFFA36A13F0100369D1D9
:10385000002867D1A26A22F4885222F0020242F0C4
:103860000202A2626268E1690A43217B42EA4102E4
:10387000A568B5F5807F02D0012D36D01D46267D86
:10388000012E35D02668716821F4694129437160A1
:103890002568AE68274931401143A960A168B1F598
:1038A000807F01D0012902D12369013B1B052568D6
:1038B000E96A21F470010B43EB62236899681E4B9F
:1038C0000B409A4225D0A36A23F0120343F0100361
:1038D000A362E36A43F00103E362012027E0C362CD
:1038E00080F82430FFF72EFEABE74FF48075C6E773
:1038F00031B9A169013945EA413141F40065C1E7B7
:10390000A16A41F02001A162E16A41F00101E16296
:10391000B8E70023E362A36A23F0030343F0010343
:10392000A36204E0A36A43F01003A362012070BD08
:1039300001207047FDF7E1FFFE0E1FFF70B582B05A
:103940000023019390F82430012B72D00446012308
:1039500080F82430FFF742FF2046FFF7FBFE0546C4
:1039600028B1002384F82430284602B070BDA36A31
:1039700023F4885323F0020343F00203A3622E4B87
:103980001E680220FEF7B4FDB6FBF0F67600019645
:1039900002E0019B013B0193019B002BF9D12268BE
:1039A000936843F008039360FEF7ECF9064623683A
:1039B0009A6812F0080F14D0FEF7E4F9801B0A2869
:1039C000F5D923689B6813F0080FF0D0A36A23F0A1
:1039D000120343F01003A362002384F8243001256E
:1039E000C2E79A6842F004029A60FEF7CBF90646F5
:1039F00023689B6813F0040F14D0FEF7C3F9801BF3
:103A00000A28F5D923689B6813F0040FF0D0A36A45
:103A100023F0120343F01003A362002384F8243040
:103A20000125A1E7A36A23F0030343F00103A36286
:103A300097E7022598E700BF08000020FFF720F86D
:103A40000B480C490C4A002302E0D458C4500433FC
:103A5000C4188C42F9D3094A094C002301E01360D1
:103A60000432A242FBD300F015F8FDF795FB704736
:103A700000000020DC010020407F0008DC01002065
:103A8000F8030020FEE70000014B1868704700BFF4
:103A90000C00002070B500260C4D0D4C641BA410CA
:103AA000A64209D103F01AFF00260A4D0A4C641BF6
:103AB000A410A64205D170BD55F8043B98470136C5
:103AC000EEE755F8043B98470136F2E7387F0008E7
:103AD000387F0008387F00083C7F00080346024416
:103AE000934200D1704703F8011BF9E7002B2DE941
:103AF000F0471F46BBBF03F100431F4600232D23A1
:103B000088B01446129A109D1370149BDDF84CA0D7
:103B100023F02008B8F1460F05D0B8F1450F00D1C9
:103B20000135022300E0032307AA049206AACDE987
:103B300002A2CDE9003522463B4600F0C5FCB8F1B3
:103B4000470F064602D1119BDB0722D5B8F1460F7D
:103B500006EB050910D13378302B0AD1002200235F
:103B600020463946FCF720FF18B9C5F10105CAF80F
:103B70000050DAF8003099440022002320463946EC
:103B8000FCF712FF08B1CDF81C903022079B4B4583
:103B900007D33046079B159A9B1B136008B0BDE8FE
:103BA000F087591C07911A70F0E70346F7B5002912
:103BB00003F8022BB6BF2D222B224942092942705D
:103BC0002BDD0DF10704A4460A2791FBF7F60A4600
:103BD000A64607FB1615632A05F13005314604F1A8
:103BE000FF340EF8015CF0DC3031AEF1020504F870
:103BF000011C2946441C61450AD30DF10902A2EBC0
:103C00000E02654588BF00221344181A03B0F0BDA8
:103C100011F8012B04F8012FEDE7302330318370C8
:103C2000C170031DF1E700002DE9F04F91B00C4683
:103C3000DDF8688016461F46054601F033FA036832
:103C400018460993FCF784FA00230E93D8F8003045
:103C50000A90073323F0070303F1080294F8189041
:103C6000D4F800B0C8F80020D3E90023C4E9122337
:103C7000D4E9128A2AF000430B934FF0FF324046FA
:103C80009C4B0B99FCF7C2FE70BB4FF0FF324046D5
:103C9000984B0B99FCF79CFE30BB0022002340465A
:103CA0005146FCF78BFE10B12D2384F84330924B24
:103CB0009248B9F1470F94BF9846804603234FF0CE
:103CC000000A23612BF00403236033462146284673
:103CD00000970FAA00F0D4F9013040F090804FF027
:103CE000FF3011B0BDE8F08F424653464046514682
:103CF000FCF78CFE48B1BAF1000FB8BF2D23804805
:103D0000B8BF84F843307F4BD3E7636809F0DF0125
:103D10005A1C42D106236360002206920EAACDE906
:103D200004920DAA4BF4806303920DF13302CDE9A6
:103D300001322360636842460093284653460B9144
:103D4000FFF7D4FE0B99804647290D9908D1C81C6E
:103D500002DB6368994240DDA9F102095FFA89F943
:103D6000B9F1650F1FD84A46013904F150000D9191
:103D7000FFF71BFF0E9A82461318012A236102DC0B
:103D80002268D20701D5013323619DF83330002B1F
:103D90009BD02D2384F8433097E74729BCD1002BD3
:103DA000BAD10123B7E7B9F1660F18D100296368CA
:103DB0000BDD216113B92268D00702D501330B4412
:103DC00023614FF0000AA165DFE713B92268D2072B
:103DD00001D50233F4E70123F2E74FF067090E9BA8
:103DE000994205DB23682161D807EAD54B1CE7E738
:103DF0000029CCBF0122C1F102021344E0E723688D
:103E00005A0507D42369424631462846B84701304F
:103E10002BD164E7B9F1650F40F2DD80D4E91201DE
:103E200000220023FCF7C0FD002833D001233146D7
:103E30002846354AB84701303FF451AFDDE90D233C
:103E40009A4202DB2368D8070FD5DDE90923314602
:103E50002846B84701303FF442AF4FF0000804F164
:103E60001A090E9B013B434509DC23689B0700F1BF
:103E70000281E0680F9B9842B8BF184631E70123E2
:103E80004A4631462846B84701303FF428AF08F18A
:103E90000108E6E70D9B002B38DC0123314628465C
:103EA000194AB84701303FF41AAFDDE90D23134337
:103EB00002D12368D907D8D5DDE909233146284640
:103EC000B84701303FF40BAF4FF0000904F11A0A74
:103ED0000D9B5B424B4501DC0E9B94E70123524650
:103EE00031462846B84701303FF4F9AE09F10109DF
:103EF000EEE700BFFFFFEF7F3C7900084079000844
:103F000048790008447900084C7900080E9AA36D9E
:103F10009A42A8BF1A46002A914637DC4FF0000BA0
:103F200029EAE97904F11A02D4F858A0AAEB0903A6
:103F30005B4533DCDDE90D239A423BDB2368DA077E
:103F400038D40E9B0D99A3EB0A02A3EB010991450E
:103F5000A8BF9146B9F1000F34DC4FF0000829EA00
:103F6000E97904F11A0ADDE90D239B1AA3EB090391
:103F700043457FF77AAF0123524631462846B8477A
:103F800001303FF4ACAE08F10108ECE713463146CE
:103F900042462846B8470130C0D1A0E60123314649
:103FA00028460B92B84701303FF499AE0B9A0BF1BB
:103FB000010BB9E73146DDE909232846B84701304E
:103FC000BFD18CE64B463146284608EB0A02B8477B
:103FD0000130C2D183E60E9A012A01DCDB0737D516
:103FE0000123424631462846B84701303FF477AEB8
:103FF000DDE9092331462846B84701303FF46FAE6A
:10400000D4E9120100220023FCF7CEFCD8B90E9BA4
:1040100008F10102013B31462846B84701300ED174
:104020005DE601234A4631462846B84701303FF451
:1040300056AE08F101080E9B013B4345F1DC5346A7
:1040400004F15002E0E64FF0000804F11A09F2E72B
:1040500001234246DFE701234A4631462846B84756
:1040600001303FF43CAE08F10108E3680F995B1A98
:104070004345F0DCFDE64FF0000804F11909F4E7D0
:104080002DE9F047164699468A680B690746934220
:10409000B8BF1346336091F843200C46DDF820800A
:1040A0000AB1013333602368990642BF3368023393
:1040B0003360256815F0060506D104F1190AE36896
:1040C00032689B1AAB4228DC94F84320131E226806
:1040D00018BF012392062DD44946384604F1430205
:1040E000C047013020D02368E56803F00603042BA5
:1040F00018BF002532684FF00006A36808BFAD1A4C
:10410000226908BF25EAE5759342C4BF9B1AED18E2
:104110001A34B5421AD1002008E00123524649461C
:104120003846C047013003D14FF0FF30BDE8F0877B
:104130000135C4E73020E11881F843005A1C94F897
:1041400045102244023382F84310C5E7012322467A
:1041500049463846C0470130E6D00136D9E700006D
:104160002DE9FF470F7E9146782F80460C469A46F0
:104170000C9D01F1430207D8622F0AD8002F00F0EE
:10418000D980582F00F0A48004F1420584F84270D1
:104190003AE0A7F16303152BF6D801A151F823F0FB
:1041A000F94100080D4200088941000889410008D2
:1041B00089410008894100080D4200088941000832
:1041C0008941000889410008894100081B43000813
:1041D0003D420008FD42000889410008894100086D
:1041E0003D430008894100083D420008894100081C
:1041F00089410008054300082B681A1D1B682A60C6
:1042000004F1420584F842300123A4E020682968C3
:10421000060601F104030AD50E682B60002E03DAAE
:104220002D23764284F843300A235E4819E00E6855
:1042300010F0400F2B6018BF36B2EFE72B682068F4
:10424000191D2960010601D51E6802E04606FBD54E
:104250001E886F2F0CBF08230A235248002184F8C0
:1042600043106568002DA8BF2168A560A4BF21F098
:10427000040121600EB9002D4DD01546B6FBF3F1B7
:1042800003FB1167C75D05F8017D3746BB420E464B
:10429000F4D9082B0BD12368DE0708D523696168A0
:1042A0009942DEBF302305F8013C05F1FF35521B72
:1042B00022614B4621464046CDF800A003AAFFF7F5
:1042C000DFFE01304CD14FF0FF3004B0BDE8F08785
:1042D000344881F845702968236851F8046B2960D7
:1042E0001D0614D5DF0744BF43F0200323601EB929
:1042F000236823F0200323601023AFE7236843F0F3
:10430000200323607823284884F84530E3E75906E2
:1043100048BFB6B2E6E71546BBE72B682668181D0E
:104320006169286035061B6801D5196002E07006D6
:10433000FBD51980002315462361BAE72B680021BD
:104340001A1D2A601D686268284600F0B7FE08B191
:10435000401B606063682361002384F84330A8E752
:104360002A46494640462369D0470130ABD02368EE
:104370009B0713D4E068039B9842B8BF1846A4E794
:104380000123324649464046D04701309BD0013593
:10439000E36803995B1AAB42F2DCEBE7002504F11A
:1043A0001906F5E74E7900085F7900082DE9F74F07
:1043B00003690C690746A342C0F28280013C00F108
:1043C000140501F1140805EB8403019358F8243017
:1043D00055F8242001339A42B2FBF3F64FEA840BDE
:1043E00008EB840931D34FF0000E4046AC46F2464C
:1043F00050F8042B93B206FB03E3120C4FEA134E62
:104400009BB206FB02E2AAEB0303DCF800A04FEA32
:10441000124E1FFA8AFA5344DCF800A092B2C2EBA3
:104420001A4202EB23429BB243EA024381454FEA20
:10443000224A4CF8043BDBD255F80B302BB9019BD8
:10444000043B9D421A462FD33C61384601F0D0F818
:10445000002825DB28464FF0000C013658F8041BD5
:10446000D0F800E08BB2ACEB03031FFA8EF21344DA
:104470000A0CC2EB1E4202EB23429BB243EA024308
:10448000C1454FEA224C40F8043BE7D255F82420BE
:1044900005EB840322B9043B9D421A460AD33C61D2
:1044A000304603B0BDE8F08F1268043B002ACBD140
:1044B000013CC6E71268043B002AF0D1013CEBE75F
:1044C0000020EEE7000000002DE9F04F16461F46E1
:1044D000446A99B00546CDE90467DDF8948074B963
:1044E000102000F0E3FD0246686220B9EA21A84BE3
:1044F000A84801F081FAC0E901440460C4606B6A15
:10450000196851B15A68012393404A608B6028466C
:1045100000F030FE00226B6A1A603B1EAFBF002322
:10452000012223F000430593A8BFC8F80030DDF84E
:104530001490994BB8BFC8F8002033EA090319D189
:1045400042F20F73249A1360C9F31303334300F04C
:104550007F85269B53B9914B22E0914B03930833FF
:10456000269A1360039819B0BDE8F08F8B4B039324
:104570000333F5E7DDE90434CDE90C34DDE90C0162
:1045800000220023FCF710FA804658B10123249A38
:104590001360269B002B00F0588582481860431E4C
:1045A0000393DFE716AB019317AB00932846DDE9D1
:1045B0000C2301F0C5F8C9F30A548346002C7FD0C0
:1045C000DDE90C010D9BA4F2FF34C3F3130343F0A8
:1045D0007F5141F44011CDF84C800022724BFBF723
:1045E000C3FD65A3D3E90023FBF776FF64A3D3E9FA
:1045F0000023FBF7BBFD064620460F46FBF702FFF4
:1046000061A3D3E90023FBF767FF02460B46304660
:104610003946FBF7ABFD06460F46FCF70DFA0022C4
:104620008246002330463946FCF7C8F948B1504667
:10463000FBF7E8FE32463B46FCF7B6F908B90AF14B
:10464000FF3ABAF1160F58D8DDE90C01574B03EBCE
:10465000CA03D3E90023FCF7B1F900284FD00023A7
:104660000AF1FF3A0F93169B1C1B631E099349BF67
:10467000C4F1010300230693002354BF069309935A
:10468000BAF1000F3DDB099BCDF838A053440993E4
:1046900000230A93229B092B00F28C80052BC4BFB8
:1046A000043B2293229BC8BF0024A3F10203D8BF7E
:1046B0000124032B00F28A80DFE803F02D4F4D5BCD
:1046C000DDE916431C4404F23243202BC3BFC3F17F
:1046D000400304F2124009FA03F3C3F12003C6BFFA
:1046E00026FA00F0184306FA03F0FBF77BFE0123DD
:1046F000A1F1F871013C13936FE70123B2E70F902A
:10470000B1E7069BA3EB0A030693CAF100030A93E1
:1047100000230E93BEE700230B93239B002B58DC52
:104720004FF001094B46CDF82090CDF88C90002237
:10473000686A4260042202F114069E4241684ED922
:10474000284600F0D7FC039000284CD102464FF4D5
:10475000D571174BCCE60123DEE700230B93239B97
:104760000AEB030909F10103012B0893B8BF0123E8
:10477000DDE70123F2E700BF61436F63A787D23F04
:10478000B3C8608B288AC63FFB799F501344D33F40
:104790007D790008947900080000F07F797900089D
:1047A000707900084D7900080000F83FD07A0008C1
:1047B000127A0008012400230B9422934FF0FF3952
:1047C00000221223CDF820902392B0E701230B930F
:1047D000F4E7DDF88C904B46CDF82090A7E7013147
:1047E00041605200A7E76B6A039A1A60089B0E2B80
:1047F00000F2A880002C00F0A580BAF1000F34DD93
:104800009A4A0AF00F0302EBC3031AF4807FD3E93C
:104810000034CDE910344FEA2A1416D0DDE90C013A
:10482000934B0327D3E90823FBF780FFCDE904016D
:1048300004F00F048E4E54B9DDE91023DDE90401C4
:10484000FBF774FFCDE9040129E00227F2E7E10755
:1048500008D5DDE91001D6E90023FBF73DFECDE9DF
:104860001001013764100836E5E700F0A580DDE9A6
:104870000C01CAF100047D4B04F00F0203EBC203EC
:10488000D3E90023FBF728FE02270023CDE904012A
:10489000774E2411002C40F08480002BD2D10F9B46
:1048A000002B00F08B80DDE90434CDE91034DDE924
:1048B000100100226F4BFCF781F800287ED0089B86
:1048C000002B7BD0B9F1000F38DDDDE910010022AB
:1048D000694BFBF701FE4C46CDE904010AF1FF38B4
:1048E00001373846FBF78EFDDDE90423FBF7F4FDC5
:1048F0000022624BFBF73AFCA1F15076CDE91001A2
:104900001196002C5DD1DDE9040100225C4BFBF720
:104910002BFC02460B46CDE904233346109AFCF7E4
:104920006BF8002840F09C82DDE90401109A06F142
:104930000043FCF743F8002840F09082DDE90C3496
:10494000CDE90434179B002BC0F25281BAF10E0F4F
:1049500000F34E81454B03EBCA03D3E90034CDE9A4
:104960000634239B002B80F2DB80089B002B00F396
:10497000D78040F07282DDE906010022404BFBF750
:10498000ABFDDDE90423FCF72DF8089C2646002842
:1049900040F048823123039F0AF1010A07F8013BE6
:1049A00044E2E20705D5D6E90023FBF795FD012394
:1049B0000137641008366DE7022770E7D046089C7F
:1049C0008FE70399294B214412910B9903EBC40300
:1049D000DDE9106753E90223002955D00020294959
:1049E000FBF7A4FE3B463246FBF7BEFBCDE91001C8
:1049F000039FDDE90401FCF71FF80446FBF702FD05
:104A000002460B46DDE90401FBF7AEFB02460B460E
:104A10003034CDE90423DDE9102307F8014BFBF71F
:104A2000CDFF002874D1DDE9042300201149FBF7F4
:104A30009BFBDDE91023FBF7C1FF002840F0B780A6
:104A4000129B9F423FF47AAFDDE9100100220A4B2E
:104A5000FBF742FD0022CDE91001DDE90401064B20
:104A6000FBF73AFDCDE90401C3E700BFD07A0008A7
:104A7000A87A00080000F03F0000244000001C401D
:104A8000000014400000E03F30463946FBF724FDAB
:104A9000129BCDE91001039C1493DDE90401FBF79F
:104AA000CBFF1590FBF7AEFC02460B46DDE9040197
:104AB000FBF75AFB159B0646303304F8013B129B6B
:104AC0000F469C424FF0000224D1DDE91001B04BAB
:104AD000FBF74CFB02460B4630463946FBF78CFF92
:104AE000002863D1DDE910230020A949FBF73CFB36
:104AF00002460B4630463946FBF760FF00283FF47C
:104B00001DAF149F7B1E149317F8013C302BF8D077
:104B1000C2463BE09F4BFBF7DFFCCDE90401BCE75D
:104B2000039FDDE90489DDE9062340464946FBF79A
:104B3000FDFDFBF781FF0446FBF764FCDDE906237E
:104B4000FBF7CAFC02460B4640464946FBF70CFB06
:104B500004F1300607F8016B039EDDF820C0BE1B90
:104B6000B44502460B4636D1FBF700FBDDE90623D0
:104B700080468946FBF740FF58BBDDE906234046E7
:104B80004946FBF711FF08B1E10722D428465946F0
:104B900000F0F0FA00233B70249B0AF1010018603A
:104BA000269B002B3FF4DEAC1F60DBE427463B4630
:104BB0001F4613F8012D392A07D1039A9A42F7D1DB
:104BC0003022039908F101080A701A7801321A702C
:104BD0009EE7D046EBE700226E4BFBF77DFC002200
:104BE000002380468946FBF7DFFE00289BD0CDE7F7
:104BF0000B9A002A00F0D080229A012A00F3AE809E
:104C0000139A002A00F0A68003F233430A9C069F01
:104C1000069A01211A440692099A28461A440992D2
:104C200000F05EFB0646002F0CDD099B002B09DD22
:104C3000BB42A8BF3B46069AFF1AD21A0692099AAF
:104C4000D31A09930A9BF3B10B9B002B00F0A880A9
:104C5000002C10DD31462246284600F0FFFB5A4664
:104C600001460646284600F051FB80465946284634
:104C700000F080FAC3460A9B1A1B04D05946284606
:104C800000F0ECFB83460121284600F029FB0E9B37
:104C90000446002B40F386801A460146284600F061
:104CA000DDFB229B0446012B7FDD4FF000082369CA
:104CB00004EB8303186900F0C5FAC0F12000099BDA
:104CC000184410F01F0000F09280C0F12003042B64
:104CD00040F38A80C0F11C00069B074403440693FE
:104CE000099B03440993069B002B05DD59461A4690
:104CF000284600F00DFC8346099B002B05DD21466C
:104D00001A46284600F004FC04460F9B002B70D086
:104D10002146584600F06CFC00286ADA0023594608
:104D20000A22284600F048FA0B9B83460AF1FF3A14
:104D3000002B00F09481314600230A22284600F01F
:104D40003BFAB9F1000F064600F39380229B022B39
:104D500057DC8EE0169BC3F1360357E7089B5C1EB9
:104D60000A9BA342B7BF0A9B1C1BE21A0E9BBEBF45
:104D70000A949B180E93089BB8BF0024002BBBBF5E
:104D8000069B089A069F9F1AACBF089B00233FE72B
:104D90000000E03F000024400A9C069F0B9E42E773
:104DA0000A9A6BE7229B012B19DC049BBBB9059B7C
:104DB000C3F313039BB9059B23F000431B0D1B0595
:104DC00083B14FF00108069B01330693099B013321
:104DD00009930E9B002B7FF46AAF01206FE74FF021
:104DE0000008F6E79846F4E73FF47DAF18461C301C
:104DF00072E7089B002B36DC229B022B33DDDDF8AB
:104E00002090B9F1000F0DD121464B4605222846CE
:104E100000F0D2F901460446584600F0E9FB0028AC
:104E20003FF7B8AD239B039F6FEA030A4FF00008DA
:104E30002146284600F09EF9002E3FF4A7AEB8F1B7
:104E4000000F05D0B04503D04146284600F092F946
:104E50003146284600F08EF998E600242646E1E720
:104E6000C246264696E50B9BDDF82090002B00F00D
:104E7000FD80002F05DD31463A46284600F048FB0C
:104E80000646B8F1000F5CD02846716800F032F990
:104E9000074628B9024640F2EA217F4BFFF728BBBC
:104EA000326906F10C01023292000C3000F014F964
:104EB00001223946284600F02BFBB0460646039BEC
:104EC00001330893039B4B440A93049B03F00103B3
:104ED0000993089B2146013B58460493FFF766FA65
:104EE000034641463033069058460B9300F080FB52
:104EF000324681462146284600F096FBC2680746A6
:104F00000B9B02BB0146584600F072FB02460B9B0E
:104F100039462846CDE90B3200F02CF9229B0C9A39
:104F2000089F43EA0201099B0B430B9B0DD1392BD0
:104F300029D0B9F1000F01DD069B3133049A1370BB
:104F400076E73046B9E70122E2E7B9F1000F06DB68
:104F5000229941EA0909099959EA010120D1002A57
:104F6000ECDD594601222846089300F0D1FA21468B
:104F7000834600F03DFB0028089B02DCDED1DA0707
:104F8000DCD5392BD8D13923049A13703B461F4600
:104F900017F8012C013B392A50D001321A7047E72B
:104FA000002A03DD392BEED00133C7E7089A0A99AE
:104FB00002F8013C8A422AD0594600230A22284698
:104FC00000F0FAF8B04583464FF000034FF00A02B4
:104FD0004146284607D100F0EFF880460646089B78
:104FE0000133089375E700F0E7F831468046002367
:104FF0000A22284600F0E0F80646F0E7B9F1000F73
:10500000CCBF4F4601274FF00008039A174459467A
:1050100001222846089300F07BFA2146834600F0DF
:10502000E7FA0028B2DC02D1089BDB07AED43B468E
:105030001F4613F8012D302AFAD0F9E6039A9A4256
:10504000A5D131230AF1010A79E7144BFFF7A8BA79
:10505000269B002B7FF481AA114BFFF7A1BAB9F16F
:10506000000F03DC229B022B3FF7CBAE039F2146B0
:105070005846FFF79BF9039A00F1300307F8013B0C
:10508000BA1A9145BADD594600230A22284600F093
:1050900093F88346EBE700BF127A00084C790008CA
:1050A000707900080048704760010020024B0146FB
:1050B000186800F01DBC00BF0C000020034610B5AE
:1050C000C9B202449342184601D1002003E004789B
:1050D00001338C42F6D110BD0A44914200F1FF33F6
:1050E00000D1704710B511F8014B914203F8014F00
:1050F000F9D110BD70B5466A04460D4676B9102048
:10510000FFF7D4FF0246606220B96621174B1848AA
:1051100000F072FCC0E901660660C660666AF3686A
:1051200083B1636ADB6853F82500B8B9012101FA3D
:1051300005F6721D2046920000F05EFB60B1C0E9EA
:1051400001560EE021220421204600F055FB636A3F
:10515000F060DB68002BE4D1002070BD026843F8EA
:1051600025200023C0E90333F7E700BF7D7900085D
:10517000237A000870B5466A05460C4676B91020B9
:10518000FFF794FF0246686220B98A21084B09485C
:1051900000F032FCC0E901660660C6603CB16B6A93
:1051A0006268DB6853F82210216043F8224070BD2A
:1051B0007D790008237A00082DE9F04107460C4666
:1051C0001E4600200D6901F1140CDCF8003001309E
:1051D00099B202FB01611E0C0B0C02FB063389B273
:1051E00001EB034185424FEA13464CF8041BECDC0B
:1051F0000EB3A368AB4219DC616838460131FFF792
:1052000079FF804628B90246B5210C4B0C4800F0C6
:10521000F3FB226904F10C01023292000C30FFF71B
:105220005BFF21463846FFF7A5FF444604EB8503A4
:1052300001355E6125612046BDE8F081127A0008E3
:10524000237A0008020C12040346CAB90304102092
:1052500013F07F4F04BF1B02083013F0704F04BFE0
:105260001B01043013F0404F04BF9B000230002BA1
:1052700005DB13F0804F00F1010008BF20207047CC
:105280000020E5E70368024613F007000BD0D907BA
:1052900021D4980749BF5B089B08012013605CBFBD
:1052A00002201360704799B209B910201B0CD9B2C3
:1052B00009B908301B0A190704BF1B0904309907F4
:1052C00004BF9B080230D90703D45B0800F101003A
:1052D00003D0136070470020704720207047000003
:1052E00010B50C460121FFF705FF024628B94FF41F
:1052F000A071044B044800F07FFB0123446103616B
:1053000010BD00BF127A0008237A00082DE9F04F83
:1053100091460A69D9F810300C469A42BEBF0B4636
:105320004C4699462769D9F810A0A368616807EB35
:105330000A06B34285B0B8BF0131FFF7DBFE30B9D2
:10534000024640F25D11434B434800F055FB00F12B
:1053500014052B46002205EB8608434521D304F1B2
:10536000140303EB870709F1140303EB8A0202928B
:105370003A1B153A22F00302043204F115018F4260
:1053800038BF04220192029A03939A420CD8002E4D
:1053900003DD58F8043D002B59D0066105B0BDE887
:1053A000F08F43F8042BD8E7B3F800A0BAF1000F50
:1053B00023D0A9464FF0000C04F1140E5EF8042B24
:1053C000D9F800101FFA82FB89B20AFB0B11614465
:1053D000D9F800C0120C4FEA1C4C0AFB02C202EBC7
:1053E000114289B241EA024177454FEA124C49F82D
:1053F000041BE3D8019A45F802C0039A0433B2F8BB
:105400000290B9F1000F20D0AE464FF0000A296893
:1054100004F1140CBCF800B0BEF8022089B209FBFC
:105420000B22924441EA0A414EF8041B5CF8042B1B
:10543000BEF80010120C09FB0211674501EB1A417E
:105440004FEA114AE6D8019AA95004359BE7013E7C
:105450009DE700BF127A0008237A00082DE9F8437F
:10546000154612F0030206460F4607D0254C013AB6
:10547000002354F82220FFF79FFE0746AD103DD0D1
:10548000746A7CB91020FFF711FE0246706228B9D9
:105490004FF4D7711C4B1D4800F0AEFAC0E901442F
:1054A0000460C460D6F82480D8F808404CB940F2B3
:1054B00071213046FFF714FF00230446C8F80800A6
:1054C00003604FF00009EB070AD539462246304603
:1054D000FFF71CFF804639463046FFF74BFE474634
:1054E0006D100BD0206838B9224621463046FFF7B0
:1054F0000DFF2060C0F800900446E4E73846BDE8A0
:10550000F88300BF987B00087D790008237A0008A3
:105510002DE9F0470C46074691462369496803EB9D
:105520006218A3684FEA621A08F10106B3420BDB66
:105530003846FFF7DFFD054648B9024640F2D9116B
:10554000294B2A4800F058FA01315B00EEE70023AE
:1055500000F1140100F110021846534537DB2069B1
:105560002AEAEA7A04F1140319F01F0901EB8A010F
:1055700003EB80002FD08A464FF0000CC9F1200EBB
:105580001A6802FA09F242EA0C024AF8042B53F8AC
:10559000042B984222FA0EFCF2D8031B153B23F091
:1055A0000303043304F11502904238BF042341F889
:1055B00003C0BCF1000F01D008F10206013E3846DD
:1055C00021462E61FFF7D6FD2846BDE8F08742F858
:1055D000040F0133C1E7043953F8042B984241F812
:1055E000042FF9D8EAE700BF127A0008237A0008EE
:1055F00003460A69006930B5801A0DD1143314319D
:1056000003EB820401EB820154F8045D51F8042D90
:10561000954202D004D3012030BDA342F4D3FBE76E
:105620004FF0FF30F8E700002DE9F84F0D46074630
:10563000114628461446FFF7DBFF061E11D13146FE
:105640003846FFF757FD024628B940F232213A4B5F
:105650003A4800F0D1F90123C0E904361046BDE80C
:10566000F88FA4BF23462C4638466168A6BF1D4666
:1056700000260126FFF73EFD024618B94FF41071CF
:105680002D4BE5E702F11408C2464FF0000C2769E4
:10569000C6602E6904F1140005F1140900EB870EB1
:1056A00009EB8606103454F804BF59F8043B1FFA7E
:1056B0008BF18C4499B21B0CACEB0101C3EB1B4387
:1056C00003EB214389B24FEA234C4E4541EA0343A1
:1056D0004AF8043BE7D8731B153B23F00303153549
:1056E0000433AE4238BF0423184443441E460546E3
:1056F00075450ED30EF10301091A21F00301033899
:10570000864538BF0021194451F8043D8BB117611B
:10571000A4E755F8048B1FFA88F161440C1404EBDC
:10572000184489B241EA04414FEA244C46F8041B6C
:10573000DEE7013FE8E700BF127A0008237A00089D
:105740002DE9F3410121DDE9087690461D46FFF77A
:10575000D1FC044630B9024640F20A31244B2548B8
:1057600000F04AF9C5F31303C5F30A552DBB0193A5
:10577000B8F1000326D068460093FFF783FD009937
:10578000F0B1019AC0F1200302FA03F30B43C240C7
:1057900063610192019B002B14BF02210121A361CF
:1057A0002161C5B1A5F233450544C0F135003D6026
:1057B0003060204602B0BDE8F08143F48013D6E7A4
:1057C0006161E7E701A8FFF75DFD0121019B216110
:1057D00063612030E5E704EB8103A0F232403860DA
:1057E0001869FFF72FFDC0EB41113160E1E700BF01
:1057F000127A0008237A000870B5A1FB025434B96C
:10580000294600F075F8064628B9304670BD0C22CE
:1058100000260260F9E72A462146FEF75FF9F4E721
:1058200038B50546002940D051F8043C0C1F002B28
:10583000B8BFE41800F022F91C4A136833B963605A
:1058400014602846BDE8384000F01EB9A34208D9CC
:10585000206821188B4201BF19685B680918216014
:10586000EDE71A465B680BB1A342FAD911685018EC
:10587000A0420BD120680144501883421160E0D14E
:1058800018685B68014411605360DAE702D90C23A1
:105890002B60D6E7206821188B4201BF19685B682E
:1058A0000918216063605460CBE738BDE80300202D
:1058B00070B50E4E0C463168054611B900F08CF8F3
:1058C00030602146284600F087F8431C0AD0C41CEB
:1058D00024F00304A04207D0211A284600F07CF8E7
:1058E000013001D14FF0FF34204670BDEC030020A1
:1058F0002DE9F041CD1C25F0030508350C2D38BFEE
:105900000C25002D074601DBA94205D90C230026F2
:105910003B603046BDE8F0812E4E00F0AFF83368B2
:105920001C4634BB29463846FFF7C2FF431C0446D9
:105930004DD134682646002E40D123683146384682
:1059400004EB030800F048F880453AD1216803359C
:105950006D1A25F0030508350C2D38BF0C25384687
:105960002946FFF7A5FF01302BD023682B44236085
:105970000EE02268521B1ED40B2A16D96119A342CD
:10598000256018BF5960636808BF316062514B6081
:10599000384604F10B0600F077F826F00706231DC1
:1059A000F21AB6D09B1BA350B3E76268A3420CBFA8
:1059B00032605A60ECE723466468B2E734467668A2
:1059C000B9E70C2338463B6000F05EF8A1E725609C
:1059D000DEE700BFE803002038B50023054D04468C
:1059E00008462B60FDF74EF8431C02D12B6803B12B
:1059F000236038BDF00300201FB514461A46094B3A
:105A000005461B68D8684CB1074BCDE901340091BD
:105A10002B46064900F00EF800F062FA044B1C46D3
:105A2000F3E700BF0C000020A47B0008B17B000856
:105A3000DF7B00080EB403B5014603AB054853F8FD
:105A4000042B0068019300F04DF802B05DF804EB00
:105A500003B070470C00002082B001B901A942B127
:105A60004BB113780B601278101E18BF012002B0E2
:105A700070471046FBE76FF00100F8E7014800F0BF
:105A8000EBBB00BFF4030020014800F0E6BB00BF01
:105A9000F4030020936810B4013B002B936007DAF5
:105AA0009469A34201DB0A2902D110BC00F04AB973
:105AB0001368581C10601970084610BC7047F8B580
:105AC00006460F461446D518AC4201D1002007E027
:105AD0003A46304614F8011BFFF7DCFF431CF3D1B4
