:020000040800F2
:1000000000500020A14F0008F5140008F714000864
:10001000F9140008FB140008FD140008000000009B
:10002000000000000000000000000000FF140008B5
:100030000115000800000000031500080515000860
:10004000E94F0008E94F0008E94F0008E94F0008B0
:10005000E94F0008E94F0008E94F0008E94F0008A0
:10006000E94F0008E94F0008E94F00080D150008A6
:10007000E94F0008E94F0008E94F0008E94F000880
:10008000E94F0008E94F0008E94F0008E94F000870
:10009000E94F0008E94F0008E94F0008E94F000860
:1000A000E94F0008E94F0008E94F0008E94F000850
:1000B000E94F00081D150008E94F0008E94F000846
:1000C000E94F0008E94F0008E94F0008E94F000830
:1000D000E94F00082D150008E94F0008E94F000816
:1000E000E94F0008E94F0008E94F00080000000050
:1000F0000000000000000000000000000000000000
:0C01000000000000000000005FF808F1A3
:1001100010B5054C237833B9044B13B10448AFF341
:1001200000800123237010BDDC01002000000000CE
:100130006C8E000808B5034B1BB103490348AFF3AD
:10014000008008BD00000000E00100206C8E000867
:10015000034613F8012B002AFBD1181A0138704707
:1001600081F0004102E000BF83F0004330B54FEA68
:1001700041044FEA430594EA050F08BF90EA020FD5
:100180001FBF54EA000C55EA020C7FEA645C7FEA68
:10019000655C00F0E2804FEA5454D4EB5555B8BF8B
:1001A0006D420CDD2C4480EA020281EA030382EAFC
:1001B000000083EA010180EA020281EA0303362D8E
:1001C00088BF30BD11F0004F4FEA01314FF4801C61
:1001D0004CEA113102D0404261EB410113F0004F73
:1001E0004FEA03334CEA133302D0524263EB43032A
:1001F00094EA050F00F0A780A4F10104D5F1200EC8
:100200000DDB02FA0EFC22FA05F2801841F1000122
:1002100003FA0EF2801843FA05F359410EE0A5F1F6
:1002200020050EF1200E012A03FA0EFC28BF4CF027
:10023000020C43FA05F3C01851EBE37101F00045DD
:1002400007D54FF0000EDCF1000C7EEB00006EEBEA
:100250000101B1F5801F1BD3B1F5001F0CD3490874
:100260005FEA30004FEA3C0C04F101044FEA4452CB
:1002700012F5800F80F09A80BCF1004F08BF5FEA52
:10028000500C50F1000041EB045141EA050130BD32
:100290005FEA4C0C404141EB0101013C28BFB1F544
:1002A000801FE9D291F0000F04BF01460020B1FA8F
:1002B00081F308BF2033A3F10B03B3F120020CDA62
:1002C0000C3208DD02F1140CC2F10C0201FA0CF040
:1002D00021FA02F10CE002F11402D8BFC2F1200CA5
:1002E00001FA02F120FA0CFCDCBF41EA0C0190405B
:1002F000E41AA2BF01EB0451294330BD6FEA0404A4
:100300001F3C1CDA0C340EDC04F11404C4F120028E
:1003100020FA04F001FA02F340EA030021FA04F3A0
:1003200045EA030130BDC4F10C04C4F1200220FAF7
:1003300002F001FA04F340EA0300294630BD21FA35
:1003400004F0294630BD94F0000F83F4801306BFFB
:1003500081F480110134013D4EE77FEA645C18BFEF
:100360007FEA655C29D094EA050F08BF90EA020F86
:1003700005D054EA000C04BF1946104630BD91EA7E
:10038000030F1EBF0021002030BD5FEA545C05D181
:100390004000494128BF41F0004130BD14F58004C0
:1003A0003CBF01F5801130BD01F0004545F0FE4134
:1003B00041F470014FF0000030BD7FEA645C1ABF69
:1003C000194610467FEA655C1CBF0B46024650EAA0
:1003D000013406BF52EA033591EA030F41F40021CC
:1003E00030BD00BF90F0000F04BF0021704730B552
:1003F0004FF4806404F132044FF000054FF0000127
:1004000050E700BF90F0000F04BF0021704730B5E7
:100410004FF4806404F1320410F0004548BF4042BC
:100420004FF000013EE700BF42004FEAE2014FEA11
:1004300031014FEA02701FBF12F07F4393F07F4FEC
:1004400081F06051704732F07F4208BF704793F0EF
:100450007F4F04BF41F40021704730B54FF4607402
:1004600001F0004521F000411CE700BF50EA010205
:1004700008BF704730B54FF000050AE050EA0102AE
:1004800008BF704730B511F0004502D5404261EB1E
:1004900041014FF4806404F132045FEA915C3FF45F
:1004A000D8AE4FF003025FEADC0C18BF03325FEAFC
:1004B000DC0C18BF033202EBDC02C2F1200300FAAD
:1004C00003FC20FA02F001FA03FE40EA0E0021FAD2
:1004D00002F11444BDE600BF70B54FF0FF0C4CF4C0
:1004E000E06C1CEA11541DBF1CEA135594EA0C0F72
:1004F00095EA0C0F00F0DEF82C4481EA030621EAAD
:100500004C5123EA4C5350EA013518BF52EA0335E7
:1005100041F4801143F4801338D0A0FB02CE4FF099
:100520000005E1FB02E506F00042E0FB03E54FF0C9
:100530000006E1FB03569CF0000F18BF4EF0010EC1
:10054000A4F1FF04B6F5007F64F5407404D25FEABD
:100550004E0E6D4146EB060642EAC62141EA555170
:100560004FEAC52040EA5E504FEACE2EB4F1FD0CB2
:1005700088BFBCF5E06F1ED8BEF1004F08BF5FEA30
:10058000500E50F1000041EB045170BD06F00046E2
:1005900046EA010140EA020081EA0301B4EB5C048F
:1005A000C2BFD4EB0C0541EA045170BD41F4801187
:1005B0004FF0000E013C00F3AB8014F1360FDEBFAC
:1005C000002001F0004170BDC4F10004203C35DA88
:1005D0000C341BDC04F11404C4F1200500FA05F30B
:1005E00020FA04F001FA05F240EA020001F00042AC
:1005F00021F0004110EBD37021FA04F642EB060122
:100600005EEA430E08BF20EAD37070BDC4F10C044B
:10061000C4F1200500FA04F320FA05F001FA04F20F
:1006200040EA020001F0004110EBD37041F10001FB
:100630005EEA430E08BF20EAD37070BDC4F1200506
:1006400000FA05F24EEA020E20FA04F301FA05F26E
:1006500043EA020321FA04F001F0004121FA04F216
:1006600020EA020000EBD3705EEA430E08BF20EAE6
:10067000D37070BD94F0000F0FD101F00046400020
:1006800041EB010111F4801F08BF013CF7D041EAA2
:10069000060195F0000F18BF704703F000465200A6
:1006A00043EB030313F4801F08BF013DF7D043EA77
:1006B0000603704794EA0C0F0CEA135518BF95EA2D
:1006C0000C0F0CD050EA410618BF52EA4306D1D1B4
:1006D00081EA030101F000414FF0000070BD50EAD3
:1006E000410606BF1046194652EA430619D094EA5D
:1006F0000C0F02D150EA013613D195EA0C0F05D147
:1007000052EA03361CBF104619460AD181EA03019A
:1007100001F0004141F0FE4141F470014FF0000052
:1007200070BD41F0FE4141F4780170BD70B54FF0ED
:10073000FF0C4CF4E06C1CEA11541DBF1CEA13556D
:1007400094EA0C0F95EA0C0F00F0A7F8A4EB05044F
:1007500081EA030E52EA03354FEA013100F0888046
:100760004FEA03334FF0805545EA131343EA12630F
:100770004FEA022245EA111545EA10654FEA0026C4
:100780000EF000419D4208BF964244F1FD0404F57D
:10079000407402D25B084FEA3202B61A65EB0305D9
:1007A0005B084FEA32024FF480104FF4002CB6EB96
:1007B000020E75EB030E22BFB61A754640EA0C0016
:1007C0005B084FEA3202B6EB020E75EB030E22BF56
:1007D000B61A754640EA5C005B084FEA3202B6EB97
:1007E000020E75EB030E22BFB61A754640EA9C0056
:1007F0005B084FEA3202B6EB020E75EB030E22BF26
:10080000B61A754640EADC0055EA060E18D04FEAE3
:10081000051545EA16754FEA06164FEAC30343EA83
:1008200052734FEAC2025FEA1C1CC0D111F4801F50
:100830000BD141EA00014FF000004FF0004CB6E749
:1008400011F4801F04BF01430020B4F1FD0C88BFE8
:10085000BCF5E06F3FF6AFAEB5EB030C04BFB6EBF3
:10086000020C5FEA500C50F1000041EB045170BDE6
:100870000EF0004E4EEA113114EB5C04C2BFD4EB13
:100880000C0541EA045170BD41F480114FF0000E97
:10089000013C90E645EA060E8DE60CEA135594EA13
:1008A0000C0F08BF95EA0C0F3FF43BAF94EA0C0F16
:1008B0000AD150EA01347FF434AF95EA0C0F7FF48B
:1008C00025AF104619462CE795EA0C0F06D152EADF
:1008D00003353FF4FDAE1046194622E750EA4106C3
:1008E00018BF52EA43067FF4C5AE50EA41047FF4D4
:1008F0000DAF52EA43057FF4EBAE12E74FF0FF3C39
:1009000006E000BF4FF0010C02E000BF4FF0010C09
:100910004DF804CD4FEA410C7FEA6C5C4FEA430C82
:1009200018BF7FEA6C5C1BD001B050EA410C0CBFD1
:1009300052EA430C91EA030F02BF90EA020F002033
:10094000704710F1000F91EA030F58BF994208BF9A
:1009500090422CBFD8176FEAE37040F00100704757
:100960004FEA410C7FEA6C5C02D150EA013C07D1AE
:100970004FEA430C7FEA6C5CD6D152EA033CD3D0F9
:100980005DF8040B704700BF8446104662468C46F3
:100990001946634600E000BF01B5FFF7B7FF002826
:1009A00048BF10F1000F01BD4DF808EDFFF7F4FF4F
:1009B0000CBF012000205DF808FB00BF4DF808EDDA
:1009C000FFF7EAFF34BF012000205DF808FB00BFFD
:1009D0004DF808EDFFF7E0FF94BF012000205DF81F
:1009E00008FB00BF4DF808EDFFF7CEFF94BF0120D4
:1009F00000205DF808FB00BF4DF808EDFFF7C4FFCD
:100A000034BF012000205DF808FB00BF4FEA410C15
:100A10007FEA6C5C02D150EA013C0AD14FEA430CF8
:100A20007FEA6C5C02D152EA033C02D14FF0000035
:100A300070474FF0010070474FEA410212F5001273
:100A400015D211D56FF47873B3EB625212D94FEA15
:100A5000C12343F0004343EA505311F0004F23FAFF
:100A600002F018BF404270474FF00000704750EA54
:100A7000013005D111F0004008BF6FF00040704711
:100A80004FF00000704700BF4FEA4102B2F1E0436F
:100A900024BFB3F5001CDCF1FE5C0DD901F0004C65
:100AA0004FEAC0024CEA5070B2F1004F40EB8300B5
:100AB00008BF20F00100704711F0804F21D113F1E1
:100AC0003872BCBF01F00040704741F480114FEA1A
:100AD0005252C2F11802C2F1200C10FA0CF320FAA3
:100AE00002F018BF40F001004FEAC1234FEAD323C0
:100AF00003FA0CFC40EA0C0023FA02F34FEA43032A
:100B0000CCE77FEA625307D150EA01331EBF4FF0B2
:100B1000FE4040F44000704701F0004040F0FE40CD
:100B200040F40000704700BF80F0004002E000BFCA
:100B300081F0004142001FBF5FEA410392EA030FC8
:100B40007FEA226C7FEA236C6AD04FEA1262D2EB12
:100B50001363C1BFD218414048404140B8BF5B4217
:100B6000192B88BF704710F0004F40F4000020F0B0
:100B70007F4018BF404211F0004F41F4000121F0C6
:100B80007F4118BF494292EA030F3FD0A2F1010210
:100B900041FA03FC10EB0C00C3F1200301FA03F14E
:100BA00000F0004302D5494260EB4000B0F5000F71
:100BB00013D3B0F1807F06D340084FEA310102F130
:100BC0000102FE2A51D2B1F1004F40EBC25008BFE2
:100BD00020F0010040EA03007047490040EB0000AC
:100BE000013A28BFB0F5000FEDD2B0FA80FCACF1AD
:100BF000080CB2EB0C0200FA0CF0AABF00EBC250DA
:100C000052421843BCBFD0401843704792F0000FC7
:100C100081F4000106BF80F400000132013BB5E71A
:100C20004FEA41037FEA226C18BF7FEA236C21D090
:100C300092EA030F04D092F0000F08BF08467047F5
:100C400090EA010F1CBF0020704712F07F4F04D1C3
:100C5000400028BF40F00040704712F100723CBFD6
:100C600000F50000704700F0004343F0FE4040F400
:100C7000000070477FEA226216BF08467FEA2363BE
:100C80000146420206BF5FEA412390EA010F40F4A9
:100C9000800070474FF0000304E000BF10F00043F5
:100CA00048BF40425FEA000C08BF704743F09643DC
:100CB00001464FF000001CE050EA010208BF7047F7
:100CC0004FF000030AE000BF50EA010208BF70477E
:100CD00011F0004302D5404261EB41015FEA010C93
:100CE00002BF84460146002043F0B64308BFA3F18B
:100CF0008053A3F50003BCFA8CF2083AA3EBC2536D
:100D000010DB01FA02FC634400FA02FCC2F120028B
:100D1000BCF1004F20FA02F243EB020008BF20F0C2
:100D20000100704702F1200201FA02FCC2F1200228
:100D300050EA4C0021FA02F243EB020008BF20EA1D
:100D4000DC7070474FF0FF0C1CEAD0521EBF1CEA4B
:100D5000D15392EA0C0F93EA0C0F6FD01A4480EA39
:100D6000010C400218BF5FEA41211ED04FF0006322
:100D700043EA501043EA5111A0FB01310CF000404E
:100D8000B1F5000F3EBF490041EAD3715B0040EA74
:100D9000010062F17F02FD2A1DD8B3F1004F40EB44
:100DA000C25008BF20F00100704790F0000F0CF017
:100DB000004C08BF49024CEA502040EA51207F3ADB
:100DC000C2BFD2F1FF0340EAC250704740F40000B6
:100DD0004FF00003013A5DDC12F1190FDCBF00F0A7
:100DE00000407047C2F10002410021FA02F1C2F155
:100DF000200200FA02FC5FEA310040F1000053EAF1
:100E00004C0308BF20EADC70704792F0000F00F03E
:100E1000004C02BF400010F4000F013AF9D040EA44
:100E20000C0093F0000F01F0004C02BF490011F4D8
:100E3000000F013BF9D041EA0C018FE70CEAD153D6
:100E400092EA0C0F18BF93EA0C0F0AD030F0004C56
:100E500018BF31F0004CD8D180EA010000F000400A
:100E6000704790F0000F17BF90F0004F084691F0C8
:100E7000000F91F0004F14D092EA0C0F01D1420202
:100E80000FD193EA0C0F03D14B0218BF084608D1CB
:100E900080EA010000F0004040F0FE4040F4000015
:100EA000704740F0FE4040F4400070474FF0FF0CA8
:100EB0001CEAD0521EBF1CEAD15392EA0C0F93EAEF
:100EC0000C0F69D0A2EB030280EA010C49024FEA41
:100ED000402037D04FF0805343EA111143EA1013FA
:100EE0000CF000408B4238BF5B0042F17D024FF4B2
:100EF000000C8B4224BF5B1A40EA0C00B3EB510F8D
:100F000024BFA3EB510340EA5C00B3EB910F24BF75
:100F1000A3EB910340EA9C00B3EBD10F24BFA3EBFA
:100F2000D10340EADC001B0118BF5FEA1C1CE0D1C2
:100F3000FD2A3FF650AF8B4240EBC25008BF20F075
:100F4000010070470CF0004C4CEA50207F32C2BFC9
:100F5000D2F1FF0340EAC250704740F400004FF066
:100F60000003013A37E792F0000F00F0004C02BF97
:100F7000400010F4000F013AF9D040EA0C0093F061
:100F8000000F01F0004C02BF490011F4000F013BBB
:100F9000F9D041EA0C0195E70CEAD15392EA0C0F23
:100FA00008D142027FF47DAF93EA0C0F7FF470AF5B
:100FB000084676E793EA0C0F04D14B023FF44CAF9E
:100FC00008466EE730F0004C18BF31F0004CCAD133
:100FD00030F000427FF45CAF31F000437FF43CAF6F
:100FE0005FE700BF4FF0FF3C06E000BF4FF0010C91
:100FF00002E000BF4FF0010C4DF804CD4FEA400273
:101000004FEA41037FEA226C18BF7FEA236C11D0BC
:1010100001B052EA530C18BF90EA010F58BFB2EB6F
:10102000030088BFC81738BF6FEAE17018BF40F0EF
:10103000010070477FEA226C02D15FEA402C05D1A3
:101040007FEA236CE4D15FEA412CE1D05DF8040B28
:10105000704700BF844608466146FFE70FB5FFF7BB
:10106000C9FF002848BF10F1000F0FBD4DF808ED73
:10107000FFF7F4FF0CBF012000205DF808FB00BF64
:101080004DF808EDFFF7EAFF34BF012000205DF8BE
:1010900008FB00BF4DF808EDFFF7E0FF94BF01200B
:1010A00000205DF808FB00BF4DF808EDFFF7D2FF08
:1010B00094BF012000205DF808FB00BF4DF808ED4B
:1010C000FFF7C8FF34BF012000205DF808FB00BF18
:1010D00042000ED2B2F1FE4F0BD34FF09E03B3EBA2
:1010E000126209D44FEA002343F0004323FA02F0CE
:1010F00070474FF00000704712F1610F01D14202BA
:1011000002D14FF0FF3070474FF00000704700BF32
:1011100072B6FEE700B595B0282200210DEB020063
:1011200003F08EFF0023059306930793089309931A
:10113000019302930393049301220A924FF48033A4
:101140000B930E920222119212934FF4E013139319
:101150000AA800F09DFEC8B90F230593022106914D
:10116000002307934FF480620892099305A801F0C9
:10117000C1F868B9022301934FF40043039301A817
:1011800001F094F930B915B05DF804FBFFF7C0FF2A
:10119000FFF7BEFFFFF7BCFF08B500F02BFEFFF71F
:1011A000B9FF00F07FF803F0E1FE00F04FF901F025
:1011B000E3FD02F0B5FA00F0B7F803F063FB2A4C48
:1011C0000021204600F04AFD0421204600F046FDA3
:1011D0000821204600F042FD244803F047FE03F0BA
:1011E0004BF903F01DF94FF47A7000F027FE002050
:1011F000014603F0CDF801221D491E4802F05BFEB6
:101200001D4800F06FFA25E01C4B1A781C4B1A6041
:1012100024E003F0CBFA1B4C207003F0CFFA054614
:10122000194B18702478013C03F0E2FA04EB4404F3
:101230002C44164B43F82400154B164A1A60164AE4
:101240005A60164B1868FFF7EFF802460B46144831
:1012500004F05EFB03F09EFA0128D5D003F08EFA6D
:101260000128D6D0E8E700BFF8010020AC04002038
:10127000A9040020E402002040020020C003002056
:10128000B8030020A6040020A70400208C0400203E
:10129000480300200AD7A33DCDCCCC3DB4030020A9
:1012A000888E000870B588B00022049205920692DC
:1012B00007921B4B996941F020019961996901F0EE
:1012C000200101910199996941F00401996199699D
:1012D00001F0040102910299996941F008019961B4
:1012E0009B6903F008030393039B0E4CC021204627
:1012F00001F0E6FA4023049301260596069602259E
:10130000079504A9204601F0C9F9802304930596A6
:101310000695079504A9204601F0C0F908B070BDF4
:10132000001002400008014000B587B0002302937E
:10133000039304930593009301931548154A0260A3
:1013400047224260836040F2CF72C26003618361D2
:1013500000F0F2FA90B94FF48053029302A90C48BE
:1013600000F0EEFB68B9002300930193694608483A
:1013700000F0E2FC40B907B05DF804FBFFF7C8FEDF
:10138000E9E7FFF7C5FEEEE7FFF7C2FEF3E700BFB0
:1013900040020020000400400368B3F1804F00D0F9
:1013A000704782B003F50433DA6942F00102DA6172
:1013B000DB6903F001030193019B02B07047000059
:1013C00002680E4B9A4200D0704700B583B003F517
:1013D0000333DA6942F00202DA61DB6903F00203E7
:1013E0000193019B002211461D2001F019FC1D20D4
:1013F00001F04EFC03B05DF804FB00BF00040040A8
:1014000000B587B000230293039304930593036808
:10141000B3F1804F02D007B05DF804FB03F504334D
:101420009A6942F004029A619B6903F004030193F4
:10143000019B0723029302230393059302A9024809
:1014400001F02CF9E7E700BF0008014000B58BB0C0
:101450000023089309930193029303930493059344
:101460000693079322484FF08042026001224260B7
:101470004022826040F2DB52C2600361836100F06F
:1014800087FA28BB00230893099308A9184800F09D
:1014900053FC00BB60230193002202920392059249
:1014A00001A9134800F0D2FAC0B904220DEB0201E1
:1014B0000F4800F0CBFAA0B9082201A90C4800F0AF
:1014C000C5FA88B90A48FFF79BFF0BB05DF804FB2B
:1014D000FFF71EFED6E7FFF71BFEDBE7FFF718FE60
:1014E000E3E7FFF715FEE7E7FFF712FEEAE700BFC5
:1014F000F8010020FEE7FEE7FEE7FEE7FEE77047A3
:101500007047704708B500F087FC08BD08B5024871
:1015100001F0D2FA08BD00BFDC04002008B5024883
:1015200000F018F908BD00BF4002002008B50248CD
:1015300002F062FB08BD00BFE402002082B00E4B47
:101540009A6942F001029A619A6902F001020092DE
:10155000009ADA6942F08052DA61DB6903F0805365
:101560000193019B054A536823F0E06343F0007345
:10157000536002B0704700BF0010024000000140FD
:1015800070B4036A026A22F001020262466882694C
:1015900022F073020C6844EA020523F002028B6811
:1015A00013430D4CA04209D00B4CA0420DD0466015
:1015B00085614A684263036270BC704723F0080388
:1015C000CA68134323F00403EEE726F440764A6921
:1015D00032438E691643EAE7002C014030B4036AB7
:1015E000026A22F4807202624568C26922F07302C4
:1015F0000C68224323F400738C6843EA04230F4CE5
:10160000A04209D00D4CA0420ED04560C2614A688C
:10161000C263036230BC704723F40063CC6843EAC2
:10162000042323F48063EDE725F440554C6945EA33
:1016300004158C6945EA0415E7E700BF002C01405A
:1016400030B4036A026A22F4805202624468C269BA
:1016500022F4E6420D6842EA052223F400538D6825
:1016600043EA0533074DA84206D04460C2614A6888
:101670000264036230BC704724F480444D6944EA3C
:101680008514F2E7002C014010B4036A046A24F0C8
:1016900001040462846924F0F00C4CEA021223F085
:1016A0000A030B438261036210BC704710B4036AE3
:1016B000046A24F010040462846924F4704C4CEA37
:1016C000023223F0A00343EA01138261036210BCDB
:1016D0007047836823F070030B4343F00703836074
:1016E0007047000090F83D30DBB2012B27D1022378
:1016F00080F83D300268D36843F00103D36003688B
:10170000114A934210D0B3F1804F0DD0A2F594321C
:10171000934209D002F58062934205D01A6842F0E4
:1017200001021A60002070479A6802F00702062A38
:1017300007D01A6842F001021A60002070470120A9
:1017400070470020704700BF002C01407047704771
:101750007047704770B504460368DE681D6915F070
:10176000020F10D016F0020F0DD06FF002021A61B6
:101770000123037703689B6913F0030F5ED0FFF723
:10178000E6FF0023237715F0040F12D016F0040FA4
:101790000FD023686FF004021A61022323772368B5
:1017A0009B6913F4407F4FD02046FFF7D0FF002302
:1017B000237715F0080F12D016F0080F0FD023680A
:1017C0006FF008021A61042323772368DB6913F0A2
:1017D000030F40D02046FFF7BAFF0023237715F010
:1017E000100F12D016F0100F0FD023686FF01002F8
:1017F0001A61082323772368DB6913F4407F31D013
:101800002046FFF7A4FF0023237715F0010F02D035
:1018100016F0010F2DD115F0800F02D016F0800FB9
:101820002FD115F0400F02D016F0400F31D115F036
:10183000200F02D016F0200F33D170BDFFF786FFC6
:101840002046FFF785FF9CE72046FFF77FFF2046F5
:10185000FFF77EFFABE72046FFF778FF2046FFF754
:1018600077FFBAE72046FFF771FF2046FFF770FFCA
:10187000C9E723686FF001021A61204602F098FE62
:10188000C9E723686FF080021A61204600F08BFAE6
:10189000C7E723686FF040021A612046FFF759FF3F
:1018A000C5E723686FF020021A61204600F07AFA3B
:1018B000C3E7000003681F4A90420AD0B0F1804F8E
:1018C00007D0A2F59432904203D002F58062904294
:1018D00003D123F070034A681343164A90420AD09A
:1018E000B0F1804F07D0A2F59432904203D002F5B8
:1018F0008062904203D123F44073CA68134323F0FB
:1019000080034A69134303608B68C3620B68836278
:10191000084B98420AD001234361036913F0010F79
:1019200003D0036923F00103036170470B6903636C
:10193000F1E700BF002C014040B310B5044690F819
:101940003D30F3B1022384F83D30214651F8040BB9
:10195000FFF7B0FF012384F8463084F83E3084F866
:101960003F3084F8403084F8413084F8423084F8C5
:10197000433084F8443084F8453084F83D3000200A
:1019800010BD80F83C30FFF71BFDDBE701207047FE
:1019900040B310B5044690F83D30F3B1022384F80B
:1019A0003D30214651F8040BFFF784FF012384F8F2
:1019B000463084F83E3084F83F3084F8403084F874
:1019C000413084F8423084F8433084F8443084F85D
:1019D000453084F83D30002010BD80F83C30FFF7E2
:1019E000DBFCDBE70120704730B4036A026A22F0B7
:1019F000100202624468826922F4E6420D6842EAFB
:101A0000052223F020038D6843EA05130E4DA842FA
:101A100009D00D4DA8420ED0446082614A688263AD
:101A2000036230BC704723F08003CD6843EA05139E
:101A300023F04003EDE724F440644D6944EA850453
:101A40008D6944EA8504E7E7002C014038B590F839
:101A50003C30012B66D004460D46012380F83C3013
:101A60000C2A5AD8DFE802F0075959591B5959591D
:101A70003059595944000068FFF782FD2268936984
:101A800043F0080393612268936923F00403936190
:101A90002268936929690B43936100203EE0006846
:101AA000FFF7A2FF2268936943F400639361226801
:101AB000936923F48063936122689369296943EAF7
:101AC00001239361002029E00068FFF787FD226869
:101AD000D36943F00803D3612268D36923F0040378
:101AE000D3612268D36929690B43D361002015E0D3
:101AF0000068FFF7A5FD2268D36943F40063D36152
:101B00002268D36923F48063D3612268D369296989
:101B100043EA0123D361002000E00120002384F880
:101B20003C3038BD0220FCE710B4846824F47F4CBC
:101B300042EA03220A4342EA0C02826010BC704768
:101B400090F83C30012B78D010B50446012380F882
:101B50003C30022380F83D300268936823F47F43D1
:101B600023F0770393600B68602B4CD029D8402B6F
:101B700054D00CD9502B22D1CA6849680068FFF7AD
:101B800083FD50212068FFF7A4FD002005E0202BF5
:101B90000DD009D9302B0AD00120012384F83D3023
:101BA000002384F83C3010BD0BB1102B05D1194631
:101BB0002068FFF78EFD0020EFE70120EDE7012010
:101BC000EBE7B3F5805F34D0B3F5005F0CD1CB68A1
:101BD0004A6889680068FFF7A7FF2268936843F4A2
:101BE000804393600020D8E7702B24D1CB684A68EB
:101BF00089680068FFF798FF2268936843F07703CD
:101C000093600020C9E7CA6849680068FFF74EFD85
:101C100060212068FFF75DFD0020BEE7CA684968C3
:101C20000068FFF731FD40212068FFF752FD0020DA
:101C3000B3E70020B1E70120AFE70220704701F0D1
:101C40001F01012303FA01FC036A23EA0C03036268
:101C5000036A02FA01F10B430362704710B50446B0
:101C6000084651BB94F83E30DBB2013B18BF01235C
:101C7000002B5BD1002839D1022384F83E300122A9
:101C800001462068FFF7DBFF23682A4A93423DD0D4
:101C90002368284A93423ED0B3F1804F3BD0A2F54F
:101CA0009432934237D002F58062934233D01A685F
:101CB00042F001021A60002039E0042908D0082906
:101CC0000DD094F84130DBB2013B18BF0123CFE7C0
:101CD00094F83F30DBB2013B18BF0123C8E794F80A
:101CE0004030DBB2013B18BF0123C1E7042805D017
:101CF000082807D0022384F84130C0E7022384F883
:101D00003F30BCE7022384F84030B8E75A6C42F415
:101D100000425A64BCE79A6802F00702062A07D01C
:101D20001A6842F001021A60002000E0012010BD94
:101D30000020FCE7002C014090F83C30012B2CD017
:101D400010B4012380F83C30022380F83D30036852
:101D50005A689C6822F0700C0A6842EA0C025A60C9
:101D600003680F4A93420AD0B3F1804F07D0A2F51F
:101D70009432934203D002F58062934204D124F05E
:101D800080044A6814439C60012380F83D3000239E
:101D900080F83C30184610BC70470220704700BFE6
:101DA000002C01407047704710B504460E4B187860
:101DB0004FF47A73B3FBF0F30C4A1068B0FBF3F006
:101DC00000F074FF68B90F2C01D901200AE000224D
:101DD00021464FF0FF3000F023FF054B1C60002030
:101DE00000E0012010BD00BF00000020080000201E
:101DF0000400002008B5074A136843F0100313607D
:101E0000032000F0FBFE0F20FFF7CEFFFFF796FB4D
:101E1000002008BD00200240034A1168034B1B78D4
:101E20000B441360704700BF8802002000000020B0
:101E3000014B1868704700BF8802002038B504467F
:101E4000FFF7F6FF0546B4F1FF3F02D0044B1B78C5
:101E50001C44FFF7EDFF401BA042FAD338BD00BF82
:101E60000000002082B0084B1B68084AA2FB032335
:101E70005B0A00FB03F3019300BF019B5A1E019212
:101E8000002BF9D102B0704708000020D34D62103A
:101E9000002800F0F18170B582B00446036813F0A9
:101EA000010F2CD0994B5B6803F00C03042B1DD061
:101EB000964B5B6803F00C03082B12D06368B3F5F4
:101EC000803F41D0002B55D103F1804303F504330B
:101ED0001A6822F480321A601A6822F480221A608A
:101EE00037E08A4B5B6813F4803FE7D0874B1B6871
:101EF00013F4003F03D06368002B00F0BF81236818
:101F000013F0020F75D0814B5B6813F00C0F5FD09C
:101F10007E4B5B6803F00C03082B54D02369002B25
:101F200000F08A807A4B01221A60FFF781FF054694
:101F3000764B1B6813F0020F75D1FFF779FF401B3A
:101F40000228F5D903209EE1704A136843F48033D8
:101F50001360636843B3FFF76BFF05466B4B1B6869
:101F600013F4003FCBD1FFF763FF401B6428F5D982
:101F7000032088E1B3F5A02F09D0644B1A6822F43E
:101F800080321A601A6822F480221A60E1E703F1B5
:101F90008043A3F53C331A6842F480221A601A6821
:101FA00042F480321A60D4E7FFF742FF0546574BF0
:101FB0001B6813F4003FA2D0FFF73AFF401B6428D0
:101FC000F5D903205FE1514B5B6813F4803FA5D145
:101FD0004E4B1B6813F0020F03D02369012B40F016
:101FE0004F814A4A136823F0F803616943EAC10349
:101FF0001360236813F0080F33D0A369002B5CD063
:10200000434B0122C3F88024FFF712FF05463F4BE4
:102010005B6A13F0020F21D1FFF70AFF401B022871
:10202000F5D903202FE1394A136823F0F8036169D9
:1020300043EAC1031360DCE7354B00221A60FFF767
:10204000F7FE0546314B1B6813F0020FD1D0FFF7A6
:10205000EFFE401B0228F5D9032014E10120FFF711
:1020600001FF236813F0040F00F09680274BDB6913
:1020700013F0805F34D1254BDA6942F08052DA6187
:10208000DB6903F080530193019B0125214B1B6801
:1020900013F4807F26D0E368012B3DD0002B53D171
:1020A00003F1804303F504331A6A22F001021A6235
:1020B0001A6A22F004021A6233E0154B0022C3F8B8
:1020C0008024FFF7B5FE0546104B5B6A13F0020F44
:1020D000C7D0FFF7ADFE401B0228F5D90320D2E0A0
:1020E0000025D3E70B4A136843F480731360FFF7AE
:1020F0009FFE0646074B1B6813F4807FCBD1FFF78A
:1021000097FE801B6428F5D90320BCE00010024034
:1021100000004242007000405F4A136A43F001032E
:102120001362E36833B3FFF783FE06465A4B1B6A1C
:1021300013F0020F2FD1FFF77BFE801B41F2883393
:102140009842F3D903209EE0052B09D0524B1A6A1E
:1021500022F001021A621A6A22F004021A62E0E70F
:102160004D4B1A6A42F004021A621A6A42F00102E6
:102170001A62D6E7FFF75CFE0646474B1B6A13F070
:10218000020F08D0FFF754FE801B41F288339842BB
:10219000F3D9032077E0E5B9E369002B72D03E4A1A
:1021A000526802F00C02082A56D0022B17D03B4B83
:1021B00000221A66FFF73CFE0446374B1B6813F0FB
:1021C000007F47D0FFF734FE001B0228F5D903201B
:1021D00059E0314AD36923F08053D361DCE72F4BB8
:1021E00000221A66FFF724FE05462B4B1B6813F0EE
:1021F000007F06D0FFF71CFE401B0228F5D9032004
:1022000041E0236AB3F5803F1AD023494B6823F499
:102210007413226A606A024313434B601F4B01220E
:102220001A66FFF705FE04461B4B1B6813F0007F80
:102230000ED1FFF7FDFD001B0228F5D9032022E097
:10224000154A536823F40033A1680B435360DCE75D
:10225000002018E0002016E0012B16D00E4B5B6822
:1022600003F48031226A914211D103F47013626A3F
:1022700093420ED1002006E001207047012002E0C9
:10228000012000E0002002B070BD0120FBE701202A
:10229000F9E70120F7E700BF0010024000004242CA
:1022A0000F4B5B6803F00C02082A01D00D48704701
:1022B000C3F383420C49885C13F4803F0BD0084B76
:1022C0005B68C3F34043094AD35C064A02FB00F053
:1022D000B0FBF3F07047064B03FB00F0704700BF04
:1022E0000010024000127A008C8E00089C8E0008BC
:1022F00000093D00002800F0A08070B50D4604469E
:10230000524B1B6803F007038B420BD24F4A1368F2
:1023100023F007030B431360136803F007038B429A
:1023200040F08D80236813F0020F17D013F0040FD4
:1023300004D0474A536843F4E0635360236813F0C2
:10234000080F04D0424A536843F460535360404A34
:10235000536823F0F003A1680B435360236813F024
:10236000010F31D06368012B20D0022B25D0384AD1
:10237000126812F0020F64D035494A6822F0030255
:1023800013434B60FFF754FD0646314B5B6803F087
:102390000C036268B3EB820F16D0FFF749FD801B78
:1023A00041F288339842F0D9032045E0284A126868
:1023B00012F4003FE0D101203EE0254A126812F0FD
:1023C000007FD9D1012037E0204B1B6803F00703C1
:1023D000AB420AD91D4A136823F007032B4313604D
:1023E000136803F00703AB422DD1236813F0040FE9
:1023F00006D0174A536823F4E063E1680B43536047
:10240000236813F0080F07D0114A536823F4605370
:10241000216943EAC1035360FFF742FF0C4B5B683D
:10242000C3F303130B4AD35CD8400B4B18600B4B20
:102430001868FFF7B9FC002070BD0120704701202B
:10244000FAE70120F8E70120F6E700BF002002408C
:1024500000100240B48E0008080000200400002094
:10246000014B1868704700BF0800002008B5FFF74F
:10247000F7FF044B5B68C3F30223034AD35CD840E5
:1024800008BD00BF00100240C48E000808B5FFF769
:10249000E7FF044B5B68C3F3C223034AD35CD84015
:1024A00008BD00BF00100240C48E000870B582B0A5
:1024B0000446036813F0010F36D03F4BDB6913F07D
:1024C000805F49D13C4BDA6942F08052DA61DB69C6
:1024D00003F080530193019B0125384B1B6813F4D3
:1024E000807F3BD0344B1B6A13F4407313D0626877
:1024F00002F440729A420ED02F4A136A23F44070BD
:102500002F490126C1F840640026C1F840641062DA
:1025100013F0010F36D1284A136A23F4407361681F
:102520000B431362002D3ED1236813F0020F06D037
:10253000214A536823F44043A1680B435360236846
:1025400013F0100F34D01C4A536823F48003E16861
:102550000B43536000202CE00025BEE7174A1368A8
:1025600043F480731360FFF763FC0646134B1B684C
:1025700013F4807FB6D1FFF75BFC801B6428F5D98C
:10258000032016E0FFF754FC06460B4B1B6A13F0C2
:10259000020FC0D1FFF74CFC801B41F288339842F8
:1025A000F3D9032005E0D36923F08053D361BBE75F
:1025B000002002B070BD00BF00100240007000405B
:1025C0000000424208B502284ED0102803D001284E
:1025D00028D0002008BD2B4B5A68186810F0807076
:1025E000F8D0C2F383432849C85C12F4803F15D069
:1025F000244B5B68C3F34043244AD25C244BB3FBB7
:10260000F2F303FB00F01F4B5B6813F4800FE1D182
:102610004000204BA3FB00304008DBE71E4B03FBD0
:1026200000F0F0E7174B1B6A40F202321A40B2F595
:10263000817F24D003F44073B3F5007F04D0B3F559
:10264000407F09D00020C5E70E4A526A12F0020FFF
:10265000F5D049F64040BDE70A4B186810F4003049
:10266000B8D04FF22440B5E7FFF710FF054B5B6889
:10267000C3F3813301335B00B0FBF3F0AAE74FF4FF
:102680000040A7E700100240A08E0008B08E0008AE
:1026900000127A00ABAAAAAA00093D0070B582B068
:1026A0000024A446A6E0804DAA4210D007D97F4D51
:1026B000AA420CD005F58035AA4208D013E0A5F552
:1026C0008015AA4203D005F57025AA4207D18A6871
:1026D000002A58D0012A51D04361082403E0A5F50F
:1026E0008015AA42F3D0BEF1FF0F4ED80646BEF1C8
:1026F000FF0F4CD84FEA8C0233680F25954023EA30
:10270000050304FA02F2134333604B6813F0805F51
:102710006ED0674B9A6942F001029A619B6903F09F
:1027200001030193019B4FEA9C02951C614B53F8F6
:1027300025600CF003039D000F23AB4026EA03063F
:102740005D4B984229D003F58063984200F08E805B
:1027500003F58063984200F08B8003F58063984214
:1027600019D004231AE0CC68BDE7CC680434BAE77A
:10277000CC680834B7E7CC680C34B4E703610824AC
:10278000B1E70024AFE70424ADE7061DAFE7ACF1E5
:1027900008029200B0E7032300E00023AB4033437C
:1027A0000232444D45F822304B6813F4801F61D04B
:1027B000424A936843EA0E0393604B6813F4001F88
:1027C0005ED03E4AD36843EA0E03D3604B6813F4ED
:1027D000003F5BD0394A536843EA0E0353604B68AD
:1027E00013F4803F58D0354A136843EA0E03136050
:1027F0000CF1010C0A6832FA0CF353D0012303FAEE
:102800000CF302EA030E33EA0202F1D14A68122AFB
:102810003FF649AF122A3FF666AF01A555F822F000
:10282000CF260008672700087127000883270008C3
:10283000E7260008E7260008E7260008E726000844
:10284000E7260008E7260008E7260008E726000834
:10285000E7260008E7260008E7260008E726000824
:10286000E72600086B27000877270008012395E773
:10287000022393E7114A936823EA0E0393609CE7CF
:102880000E4AD36823EA0E03D3609FE70B4A5368CE
:1028900023EA0E035360A2E7084A136823EA0E03F3
:1028A0001360A5E702B070BD0000221000003110D7
:1028B00000100240000001400008014000040140F7
:1028C0000AB10161704709040161704730B4012405
:1028D000056CAC40C56B6C60046863604368102B8A
:1028E00005D0036899600368DA6030BC70470368FC
:1028F0009A600368D960F8E760B310B402460168D3
:10290000154B0B441548A0FB03031B099B001364E4
:10291000134BD363022382F82130086820F47F50E0
:1029200020F03000536894682343D468234314692B
:1029300023435469234394692343D46923430343C2
:102940000B6000209063012382F8213082F8200080
:1029500010BC704701207047F8FFFDBFCDCCCCCC38
:102960000000024038B5044690F82000012832D01B
:10297000012084F8200094F82100C0B2012804D07E
:10298000002384F82030022038BD022084F8210082
:102990000020A0632568286820F0010028602046F8
:1029A000FFF794FFE36A5BB12268136843F00E03FC
:1029B00013602268136843F0010313600020E3E70B
:1029C0002268136823F0040313602268136843F03D
:1029D0000A031360EDE70220D6E790F82130DBB25E
:1029E000022B06D004238363002380F820300120CB
:1029F00070470268136823F00E03136002681368BF
:102A000023F001031360036CC16B012202FA03F38C
:102A10004B6080F82120002380F820301846704752
:102A200008B590F82130DBB2022B03D00423836376
:102A3000012008BD0268136823F00E0313600268CA
:102A4000136823F0010313600368194A934214D0FA
:102A5000143293421FD0143293421ED01432934248
:102A60001ED0143293421ED01432934202D04FF043
:102A7000807203E04FF4801200E001220D4B5A6097
:102A8000012380F82130002380F82030436B6BB1A4
:102A900098470020CDE71022F0E74FF48072EDE771
:102AA0004FF48052EAE74FF48032E7E70020C0E7B6
:102AB000080002400000024038B5C36B1A68046881
:102AC0002568016C04238B40134235D015F0040FA8
:102AD00032D0236813F0200F03D1236823F00403BE
:102AE00023600368434A934214D01432934218D0AF
:102AF0001432934217D01432934217D014329342B7
:102B000017D01432934202D04FF0806203E04FF4AA
:102B1000800200E00422384B5A60C36A03B1984730
:102B200038BD4022F7E74FF48062F4E74FF480426B
:102B3000F1E74FF48022EEE702238B4013423CD0B2
:102B400015F0020F39D0236813F0200F06D1236847
:102B500023F00A032360012380F821300368254A0B
:102B6000934214D0143293421CD0143293421BD09F
:102B7000143293421BD0143293421BD0143293422E
:102B800002D04FF0007203E04FF4001200E0022286
:102B9000194B5A60002380F82030836A002BBFD085
:102BA0009847BDE72022F3E74FF40072F0E74FF4B7
:102BB0000052EDE74FF40032EAE7082303FA01F18F
:102BC0001142ADD015F0080FAAD0236823F00E03F0
:102BD0002360026CC16B012303FA02F24A60836333
:102BE00080F82130002380F82030036B002B97D031
:102BF000984795E70800024000000240074AD36862
:102C000023F4E0631B041B0C000200F4E0600343A8
:102C100043F0BF6343F40033D360704700ED00E03E
:102C200000B5194BDB68C3F30223C3F1070CBCF1F9
:102C3000040F28BF4FF0040C03F1040EBEF1060F81
:102C400018D9033B4FF0FF3E0EFA0CFC21EA0C01B1
:102C500099400EFA03F322EA0303194300280BDB21
:102C60000901C9B200F1604000F5614080F800132D
:102C70005DF804FB0023E5E700F00F000901C9B28D
:102C8000024B1954F4E700BF00ED00E014ED00E042
:102C9000002807DB00F01F02400901239340024A8D
:102CA00042F82030704700BF00E100E00138B0F189
:102CB000807F0BD24FF0E0235861054AF02182F863
:102CC00023100020986107221A6170470120704785
:102CD00000ED00E07047000010B503460C4A0D49B6
:102CE0000D48006840B10C4800680344521A9342F2
:102CF00006D8094A136010BD0748084C0460F2E783
:102D000002F074F90C2303604FF0FF30F3E700BFCB
:102D100000500020000400008C020020300500203C
:102D20000120704708B502F061F9162303604FF0E7
:102D3000FF3008BD08B54FF0FF31FFF7F3FFFEE7A6
:102D400070B50C461646002506E0AFF3008021461C
:102D500001F8010B01350C46B542F6DB304670BD7B
:102D60004FF0FF3070474FF400534B600020704726
:102D7000012070470020704708B50B480B4B0360DB
:102D80000B4B436000238360C3604FF480420261B9
:102D900043618361C361036200F036FA00B908BD84
:102DA000FEF7B6F9FBE700BF900200200054004098
:102DB000801A060010B586B0002302930393049393
:102DC00005930268154B9A4201D006B010BD144C11
:102DD000A36943F00803A361A36903F00803009308
:102DE000009B4FF440730293122303930323059334
:102DF00002A90C48FFF752FC0B4A536843F0E0630A
:102E000043F002035360E36943F40013E361E369B1
:102E100003F400130193019BD7E700BF0054004067
:102E200000100240000C01400000014003685A6994
:102E300012F4806F01D1002070476FF480625A61F4
:102E400000230363202280F83D2080F83E30026C8E
:102E500042F00402026480F83C30012070472DE902
:102E6000F04106460C46174698463BE0FEF7E0FF69
:102E7000069BC01A404502D8B8F1000F32D1012D8F
:102E800018D033689B6924EA03039BB2B3FA83F337
:102E90005B099F4226D100233363202286F83D2020
:102EA00086F83E30326C42F02002326486F83C30C4
:102EB000012027E033685B6924EA03039BB2B3FA7D
:102EC00083F35B09E5E733685B6924EA030C1FFAC7
:102ED0008CFCBCFA8CFC4FEA5C1C674511D1B8F144
:102EE000FF3FC3D1C4F30745012DECD033689B6984
:102EF00024EA030C1FFA8CFCBCFA8CFC4FEA5C1C25
:102F0000EBE70020BDE8F0812DE9F84305460E46C9
:102F10009046994653E01A6842F400721A602B6892
:102F20006FF480625A6100232B63202285F83D20D4
:102F300085F83E302A6C42F004022A6485F83C3061
:102F400001204AE0FEF774FFA0EB0900404502D8DB
:102F5000B8F1000F33D1012F17D02B689B6926EAF7
:102F600003039BB2003B18BF012343B300232B6331
:102F7000202285F83D2085F83E302A6C42F0200260
:102F80002A6485F83C30012027E02B685B6926EA3B
:102F900003039BB2003B18BF0123E6E72B689C6943
:102FA00026EA0404A4B2003C18BF0124A4B12B6893
:102FB0005A6912F4806FAED1B8F1FF3FC2D1C6F3A7
:102FC0000747012FEAD12B685C6926EA0404A4B202
:102FD000003C18BF0124E9E70020BDE8F88370B584
:102FE00004460D46164623685B6913F0800F21D115
:102FF0002046FFF71BFFF8B9B5F1FF3FF3D0FEF70E
:1030000017FF801BA84201D8002DECD123685B6913
:1030100013F0800FE7D100232363202284F83D20A2
:1030200084F83E30226C42F02002226484F83C3066
:10303000012000E0002070BD0120FCE72DE9F047F1
:1030400084B004460D46164699460C9FDDF8348040
:103050000268136843F4806313600368196841F4DD
:1030600080711960CDF800803B4600224FF00111BD
:10307000FFF7F5FE70B95FFA85FA236805F0FE05E3
:103080001D6143463A4641492046FFF73DFF68B17E
:10309000012008E023681B6813F4807F02D04FF4FE
:1030A00000732364032004B0BDE8F087002303937A
:1030B00023685A6903929B690393039B42463946EE
:1030C0002046FFF78CFF80B9B9F1010F18D12368B2
:1030D000F6B21E61424639462046FFF780FF68B3CC
:1030E000236C042B24D00120DDE7236C042B01D0BA
:1030F0000120D8E72268136843F400731360F7E7F0
:103100002368320A1A61424639462046FFF767FFB4
:1031100018B92368F6B21E61DCE7236C042B01D0DA
:103120000120C0E72268136843F400731360F7E7D7
:103130002268136843F400731360D4E722681368AD
:1031400043F480731360CDF800803B4600224FF0BB
:1031500001112046FFF783FE68B922684AF0010397
:10316000136143463A4609492046FFF7CDFE002841
:1031700099D0012097E723681B6813F4807F02D061
:103180004FF40073236403208DE700BF02000100A9
:1031900070B504460D46164614E06FF010025A61F1
:1031A00000232363202284F83D2084F83E30226CE3
:1031B000226484F83C30012025E023685B6913F029
:1031C000400F10D02368586910F0400F1AD1586989
:1031D00010F0100FE1D1FEF72BFE801BA842ECD8B7
:1031E000002DEFD1E9E700232363202284F83D205E
:1031F00084F83E30226C42F02002226484F83C3095
:10320000012000E0002070BD002800F0CC8070B5E7
:10321000044690F83D30002B77D0242384F83D30CD
:103220002268136823F0010313602268136843F4D3
:10323000004313602268136823F400431360FFF710
:1032400015F962685A4B9A4264D85A4B98428CBF1F
:1032500000230123002B40F0A8805749A1FB003137
:103260008B0C25686A6822F03F0242EA91426A604C
:1032700021680A6A22F03F0266684D4DAE424FD87F
:10328000013313430B622168CA6922F44F4222F0D2
:10329000FF026668464B9E424CD8431E7600B3FB45
:1032A000F6F3013340F6FC70034278D0C3F30B030E
:1032B0001343CB6121680B6823F0C003E269206AE5
:1032C000024313430B6021688B6823F4034323F00C
:1032D000FF032269E068024313438B602168CB68D7
:1032E00023F0FF036269A06902431343CB602268A5
:1032F000136843F00103136000202064202384F846
:103300003D30206384F83E0070BD80F83C30FFF70C
:1033100051FD82E7294B98428CBF0023012399E796
:103320004FF4967505FB03F3254DA5FB03539B094D
:103330000133A6E7A368BBB9451E06EB460CB5FBF7
:10334000FCF50135C5F30B05B5FA85F56D0945BBEF
:10335000C3B9013806EB4603B0FBF3F30133C3F303
:103360000B0343F40043A3E7451E06EB860C0CEB6E
:103370008C0CB5FBFCF50135C5F30B05B5FA85F5ED
:103380006D09E4E7013806EB860303EB8303B0FB2A
:10339000F3F30133C3F30B0343F4404388E70423FF
:1033A00086E7012384E7012070470120ACE700BFD6
:1033B000A08601007F841E0083DE1B43FF083D00C2
:1033C000D34D62102DE9F04389B004460F46904674
:1033D0009946129E00230793FEF72AFD054694F8AE
:1033E0003D00C0B2202804D00227384609B0BDE80D
:1033F000F08300951923012281492046FFF72FFD14
:10340000002840F07C8194F83C30012B00F0798159
:10341000012384F83C3023681A6812F0010F03D1AD
:103420001A6842F001021A602268136823F40063EC
:103430001360222384F83D30402384F83E3000237B
:103440002364109B6362BDF844306385638D2385DC
:103450006C4BE362019500964B4642463946204646
:10346000FFF7ECFD0746002840F04D81238D5BB946
:10347000039323685A6903929A690392039A1A681C
:1034800042F400721A60F2E0012B0FD0022B21D01F
:103490002268136843F48063136000230693236853
:1034A0005A6906929B690693069BE0E022681368BE
:1034B00023F48063136072B60023049323685A696F
:1034C00004929A690492049A1A6842F400721A608B
:1034D00062B6CCE02268136843F40063136072B6EE
:1034E0000023059323685A6905929A690592059A03
:1034F0001A6822F480621A6062B6B8E02A46314641
:103500002046FFF745FE002840F0FF8023681A6937
:10351000636A1A70636A01336362238D013B2385FA
:10352000638D9BB2013B9BB26385A0E0009533465F
:10353000002235492046FFF792FC002840F0E98040
:103540002268136823F48063136072B623681A69D3
:10355000636A1A70636A01336362238D013B2385BA
:10356000638D9BB2013B9BB26385284B1B68DB08D4
:10357000274AA2FB03231B0A03EB8303C3EBC3030A
:103580000793079B013B0793079B002B28D02368D9
:103590005A6912F0040FF4D01A6842F400721A60EB
:1035A00023681A69636A1A70636A01336362238D40
:1035B000013B2385638D9BB2013B9BB2638562B661
:1035C00023681A69636A1A70636A01336362238D20
:1035D000013B2385638D9BB2013B9BB2638546E033
:1035E0002363202284F83D2084F83E30226C42F090
:1035F0002002226462B684F83C300127F5E600BF61
:10360000020010000000FFFF04000100080000207D
:1036100089B5F8142A4631462046FFF7B9FD00283F
:1036200079D123681A69636A1A70636A0133636225
:10363000228D013A92B22285638D9BB2013B9BB2EF
:1036400063852368596911F0040F10D0032A48D00C
:1036500023681A69636A1A70636A01336362238D8F
:10366000013B2385638D9BB2013B9BB26385238D18
:10367000002B3BD0032BCDD8012B3FF43FAF022BC7
:103680007FF454AF00953346002224492046FFF7CB
:10369000E6FB00283BD172B62268136843F400733E
:1036A000136023681A69636A1A70636A013363627C
:1036B000238D013B2385638D9BB2013B9BB26385C8
:1036C00062B623681A69636A1A70636A01336362B7
:1036D000238D013B2385638D9BB2013B9BB26385A8
:1036E000C5E71A6822F480621A60B1E7202384F8E3
:1036F0003D30002384F83E3084F83C3075E60227E4
:1037000073E6022771E601276FE601276DE60127C0
:103710006BE6012769E6012767E600BF04000100A8
:1037200008B50A480A4B03604FF4E13343600023B5
:103730008360C36003610C2242618361C36100F056
:103740003AF900B908BDFDF7E3FCFBE7E40200200D
:103750000038014030B587B00023029303930493EF
:10376000059302681B4B9A4201D007B030BD03F5A8
:1037700058439A6942F480429A619A6902F48042FD
:103780000092009A9A6942F004029A619B6903F0E0
:1037900004030193019B4FF40073029302230393EC
:1037A000032305930C4D02A92846FEF777FF4FF43B
:1037B0008063029300240394049402A92846FEF730
:1037C0006DFF224621462520FFF72AFA2520FFF724
:1037D0005FFACAE70038014000080140026802F1C0
:1037E0000C0353E8003F23F490730C3242E800319D
:1037F0000029F3D1026802F1140353E8003F23F0DB
:103800000103143242E800310029F3D1036B012B8C
:1038100005D0202380F842300023036370470268FC
:1038200002F10C0353E8003F23F010030C3242E88E
:1038300000310029F3D1ECE790F84130DBB2212BC5
:1038400001D0022070478368B3F5805F17D0036A08
:103850005A1C02621A7803685A60C38C9BB2013BFF
:103860009BB2C3844BB90268D36823F08003D36052
:103870000268D36843F04003D360002070470369B7
:10388000002BE4D1036A1B880268C3F3080353606A
:10389000036A02330362E0E710B504460268136965
:1038A00023F44053C1680B431361836802691343D7
:1038B00042691A430168CB6823F4B05323F00C0328
:1038C0001343CB600268536923F4407381690B434F
:1038D00053610268134B9A4220D0FEF7C7FD02469F
:1038E00002EB820202EB820263689B00B2FBF3F2FE
:1038F0000D48A0FB02314909642303FB11231B017E
:103900003233A0FB03235B0903F0F00202EB011248
:1039100003F00F03216813448B6010BDFEF7B6FD62
:103920000246DDE7003801401F85EB512DE9F043E9
:1039300083B005460E4617469946DDF828802C6868
:10394000246836EA04030CBF4FF0010C4FF0000C62
:10395000BC4528D1B8F1FF3FF1D0FEF769FAA0EBE2
:103960000900404523D8B8F1000F22D02B68DA684F
:1039700012F0040FE3D0802EE1D0402EDFD01A6881
:1039800012F0080FDBD0002401941A6801925B68E2
:103990000193019B2846FFF721FF08236B6485F8FC
:1039A0004040012000E0002003B0BDE8F083032088
:1039B000FAE70320F8E760B310B5044690F8413009
:1039C00013B3242384F841302268D36823F40053CE
:1039D000D3602046FFF760FF2268136923F4904309
:1039E00013612268536923F02A0353612268D36864
:1039F00043F40053D36000206064202384F84130F6
:103A000084F84230606310BD80F84030FFF7A2FEBA
:103A1000D7E7012070472DE9F04182B01E4690F8AB
:103A20004130DBB2202B56D104460D46904600298A
:103A300055D00AB901204FE000234364212380F8C8
:103A40004130FEF7F5F90746A4F82480A4F8268053
:103A5000A368B3F5805F02D04FF0000814E023693B
:103A60002BB34FF000080FE0202384F841300320EF
:103A700032E038F8023B2268C3F308035360E28C5B
:103A800092B2013A92B2E284E38C9BB293B1009677
:103A90003B46002280212046FFF748FF0028E3D163
:103AA000002DE6D015F8012B23685A60E7E7A846F9
:103AB0000025E9E700963B46002240212046FFF71B
:103AC00035FF18B9202384F8413005E0202384F81D
:103AD0004130032000E0022002B0BDE8F081012067
:103AE000FAE7704708B50168CA6822F04002CA6068
:103AF000202280F84120FFF7F4FF002008BD704726
:103B000008B5406A0023C385C384FFF7F8FF08BDEA
:103B1000704790F84230DBB2222B69D18368B3F54D
:103B2000805F4FD0826AB3F5805F04D0002B56D1FE
:103B30000369002B53D103685B681370836A0133F8
:103B40008362C38D9BB2013B9BB2C385002B51D1D5
:103B500000B583B00268D36823F02003D360026805
:103B6000D36823F48073D3600268536923F00103A0
:103B70005361202380F8423000234363036B012B01
:103B800033D100230363026802F10C0353E8003FC2
:103B900023F010030C3242E800310029F3D103680E
:103BA0001A6812F0100F06D0002201921A680192D2
:103BB0005B680193019B818DFFF7AAFF002003B092
:103BC0005DF804FB0269002AACD1826A03685B6875
:103BD000C3F308031380836A02338362B1E7036887
:103BE0005B6803F07F031370A8E700F0F5FCE5E7DE
:103BF000022070470020704730B583B00446026849
:103C00001368D068516913F00F0505D113F0200F28
:103C100002D010F0200F19D12DB111F0010119D1EE
:103C200010F4907F16D1216B01297DD013F0800F05
:103C300003D010F0800F40F0188113F0400F03D034
:103C400010F0400F40F0158103B030BD2046FFF763
:103C500060FFF9E713F0010F06D010F4807F03D066
:103C6000626C42F00102626413F0040F04D019B1D7
:103C7000626C42F00202626413F0020F04D019B1C8
:103C8000626C42F00402626413F0080F07D010F077
:103C9000200F00D119B1626C42F008026264626CBC
:103CA000002AD1D013F0200F02D010F0200F29D11C
:103CB00023685B6903F04003626C12F0080F00D1C7
:103CC00063B32046FFF78AFD23685B6913F0400F5A
:103CD00020D0226802F1140353E8003F23F0400390
:103CE000143242E800310029F3D1E36B73B1634A27
:103CF0005A63E06BFEF794FE0028A5D0E06B436B9F
:103D00009847A1E72046FFF704FFD1E72046FFF7D9
:103D1000F6FE99E72046FFF7F2FE95E72046FFF70B
:103D2000EEFE002363648FE713F0100F3FF47EAFC5
:103D300010F0100F3FF47AAF002301931368019342
:103D400053680193019B536913F0400F51D0E26B0C
:103D500013685B689BB2002B3FF476AFA18D99424C
:103D60007FF672AFE3859369202B37D0226802F18A
:103D70000C0353E8003F23F480730C3242E8003117
:103D80000029F3D1226802F1140353E8003F23F025
:103D90000103143242E800310029F3D1226802F114
:103DA000140353E8003F23F04003143242E800318B
:103DB0000029F3D1202384F84230002323632268B2
:103DC00002F10C0353E8003F23F010030C3242E8E9
:103DD00000310029F3D1E06BFEF7FFFD022363639E
:103DE000A18DE38D9BB2C91A89B22046FFF790FEE0
:103DF0002AE7A18DE38D9BB2C91A89B2E38D9BB2EC
:103E0000002B3FF421AF00293FF41EAF226802F1DE
:103E10000C0353E8003F23F490730C3242E8003067
:103E20000028F3D1226802F1140353E8003F23F085
:103E30000103143242E800300028F3D1202384F833
:103E4000423000232363226802F10C0353E8003F51
:103E500023F010030C3242E800300028F3D1022393
:103E600063632046FFF754FEEEE62046FFF7E4FCCE
:103E7000EAE62046FFF736FEE6E600BF013B000813
:103E800081628285C28500234364222380F8423008
:103E9000036923B10268D36843F48073D360026876
:103EA000536943F0010353610268D36843F0200370
:103EB000D3600020704708B590F84230DBB2202B69
:103EC00008D149B10AB9012008BD00230363FFF7F7
:103ED000D7FFF9E70220F7E70120F5E700B585B045
:103EE0003223029301920091012302466C21034880
:103EF000FFF768FA05B05DF804FB00BF90020020F0
:103F000000B583B00023ADF80430022201A90C20D3
:103F1000FFF7E4FF9DF804301B021BB29DF805007B
:103F20001843FCF7BBFE0549FCF70CFF4FF0665148
:103F3000FCF708FF03B05DF804FB00BFC50EC940E5
:103F400038B5FFF7DDFF0446134B1968FCF7F0FDA9
:103F5000054620F000401149FDF7B0F850B10021AE
:103F60002846FDF7ABF8A0B14FF0FF310C4A1368BB
:103F70000B441360084B1C60094B1868FCF78EFE5D
:103F80000849FCF7DFFE2146FCF7D4FD00F10040B4
:103F900038BD0121EAE700BF340300209ED8A040CD
:103FA00038030020DB0FC94010B582B0044600235F
:103FB000ADF80430022201A90C20FFF78FFF9DF815
:103FC00004301B021BB29DF805000343C3F5805368
:103FD000114A82FB0312D018DA17C2EB602202EBFF
:103FE000C20202EB8212981AFCF758FE0B49FCF74A
:103FF000A9FE0B49FCF75AFF2146FCF79BFD04463E
:104000000649FDF751F820B104492046FCF790FD20
:104010000446204602B010BDE1000EE00000B443AB
:104020000040124438B5FFF78BFF0446054B18607B
:10403000054D2968FCF77CFD0449FCF783FE2C60E4
:1040400038BD00BF300300202C0300200000FA43DD
:1040500010B51446064B1B681B6813F0400FF9D0CF
:10406000FF23A2B20248FFF7D6FC204610BD00BFD6
:10407000E40200202DE9F84F04460D460068FCF7E5
:10408000D3F906460F46A068FCF7CEF9804689466C
:1040900003F002FD02460B4630463946FCF71CFA97
:1040A00082468B466068FCF7BFF906460F464046DD
:1040B000494603F043FD02460B4630463946FCF7BD
:1040C0000BFA02460B4650465946FCF74DF8FCF7F2
:1040D000DBFC28602068FCF7A7F906460F46A068BD
:1040E000FCF7A2F98046894603F028FD02460B46FC
:1040F00030463946FCF7F0F982468B466068FCF79B
:1041000093F906460F464046494603F0C5FC024671
:104110000B4630463946FCF7DFF902460B4650465F
:104120005946FCF723F8FCF7AFFC6860BDE8F88F50
:104130002DE9F04782B002AB03E903001546DDF834
:10414000049033490098FCF7FDFD06464FF07C5182
:104150004846FCF7F7FD044601463046FCF7E8FC0C
:10416000804631460020FCF7E3FC82462146FCF7FE
:10417000DFFC074627494846FCF7E4FD6860214616
:104180003046FCF7D7FC2349FCF7DCFDA86051461C
:104190002046FCF7CFFC1F49FCF7D4FDE860002166
:1041A0004846FCF78BFFC8B1012400214046FCF7CC
:1041B00085FFA8B1012600213846FCF77FFF88B1B2
:1041C000012306EB430304EB4303DBB2013B052B66
:1041D0000CD8DFE803F00E1A091411170024E4E7E5
:1041E0000026E8E70023ECE701232B7002B0BDE8CE
:1041F000F08702232B70F9E703232B70F6E70423E3
:104200002B70F3E705232B70F0E706232B70EDE707
:104210007DB35D3F0080D8432DE9F84304460E4648
:1042200005786B1E052B08D8DFE803F06503756D74
:104230007D5DC368036183684361D4F81090D4F84E
:10424000148041464846FCF775FC07464F49FCF789
:1042500035FFB0B14D494846FCF774FD3946FCF7CF
:1042600025FE0746206149494046FCF76BFD814623
:1042700039464046FCF75EFC01464846FCF716FE10
:104280006061D4F8109049464048FCF751FC6769DA
:104290003946FCF74DFC4FF07C51FCF753FDA06113
:1042A0004FF07C51FCF74EFD804660624FF07C5130
:1042B0003846FCF747FD01464046FCF73BFC074605
:1042C00020624FF07C514846FCF73CFD01463846E1
:1042D000FCF730FCE061013D052D34D8DFE805F046
:1042E0003B2E48414F358368036141680020FCF74D
:1042F0001FFC6061A1E7C1680020FCF719FC206188
:104300006368636199E741680020FCF711FC206154
:10431000E368636191E74368036181680020FCF70B
:1043200007FC606189E781680020FCF701FC2061DF
:10433000E1680020FCF7FCFB60617EE73760E36921
:104340007360636AB360BDE8F8833060636A73606A
:10435000236AB360F7E73060236A7360636AB3600F
:10436000F1E7C6F80080236A7360E369B360EAE7A7
:10437000C6F80080E3697360236AB360E3E73760DF
:10438000636A7360E369B360DDE700BF00803B45AB
:1043900038B5114B58601960104C21461846FFF78C
:1043A00069FE0F4D2A4694E80300FFF7C1FE0D4C4D
:1043B00021462846FFF730FF2068FCF789FE4FF0C2
:1043C000804568636068FCF783FEA863A068FCF71B
:1043D0007FFEE86338BD00BF740300206C0300203B
:1043E0008C0300208003002038B504460D460848A1
:1043F000FFF7DAFD0749FCF7A5FC0749FCF756FD76
:10440000064B986029462046FFF7C2FF38BD00BF23
:104410000000F042C50E4940000034437403002000
:1044200008B5074B074A9A604FF07E510020FFF70E
:10443000AFFFFFF785FD044B1860044B186008BD03
:1044400074030020D9090640300300202C0300200B
:1044500070B506460C461546FCF726FE28B92946D7
:104460003046FCF717FE10B93446204670BD2C4686
:10447000FBE70000000000002DE9F84300253BE0C9
:10448000274E02223146274800F0A8FB3088FCF76F
:1044900001FC4FF06651FCF755FCFBF7C5FF1EA36E
:1044A000D3E90023FCF718F8804689461E4C2068A3
:1044B000FBF7BAFF42464B46FBF758FEFCF7E4FA1F
:1044C00020607088FCF7E6FB4FF06651FCF73AFC81
:1044D000FBF7AAFF10A3D3E90023FBF7FDFF064675
:1044E0000F466068FBF7A0FF32463B46FBF73EFEF7
:1044F000FCF7CAFA60600135B5F57A7FC0DB0A4C7B
:104500000A492068FCF7D2FC206008496068FCF783
:10451000CDFC6060BDE8F8836666666666660A4044
:1045200044030020AC0400203C03002000007A4437
:10453000F8B504468169C068FCF7FAFA05462061BF
:10454000E169FCF7F7FA0646E061276861692846E9
:10455000FCF7EEFA01463846FCF7F4FB07466168C3
:104560003046FCF7EFFB01463846FCF7E3FA2062E1
:10457000034A0449FFF76CFF20626561F8BD00BF84
:10458000000040C00000404010B5FFF74BFD064C56
:10459000A061064BE3602046FFF7CAFF0021206AB6
:1045A000FFF722FF10BD00BF480300200000484174
:1045B00008B50268054B9A4200D008BD044B9A69C1
:1045C000044B1A60FFF7E0FFF7E700BF000400406C
:1045D00048030020B403002008B50268594B9A42F2
:1045E00000D008BD012258495848FFF764FC584BD9
:1045F0001B781BB9544A1278232A16D0012B18D0E5
:10460000022B1ED0032B43D0042B49D0052B50D0B6
:10461000062B1ED14C4B1B78212B52D04D490A78CA
:10462000501C08704C498B5413E0494B01221A70FE
:104630000FE0454A1278502AE2D1454B02221A7007
:1046400007E0414B1B78303B444A1370404B032238
:104650001A70434B1B781BB93B4A1278402A3CD056
:10466000012B3ED0022B44D0032B4AD0042B50D038
:10467000052B56D0062BB4D1334B1B78212B58D0A9
:1046800038490A78501C0870303B37498B54A8E7EA
:104690002D4A12785F2AB7D12D4B04221A70D8E721
:1046A000294B1B78303B314A1370294B05221A7075
:1046B000CFE7254A12783D2AAAD1254B06221A7047
:1046C000C7E7244A11782A4B197000231370204A37
:1046D0001370284B01221A70BBE7214B01221A707C
:1046E0007FE7194A1278462ABCD11D4B02221A7064
:1046F00077E7154A12786C2AB6D1194B03221A7043
:104700006FE7114A1278612AB0D1154B04221A7052
:1047100067E70D4A1278672AAAD1114B05221A7051
:104720005FE7094A12783D2AA4D10D4B06221A7080
:1047300057E700230A4A13700F4A01211170094AF2
:1047400013704EE700380140A9040020E402002065
:10475000A5040020A804002024040020AA040020AE
:10476000890400208A040020C0030020AB0400203C
:10477000BC030020A404002088040020044B187807
:10478000012801D00020704700221A70704700BF36
:10479000A4040020044B1878012801D000207047A1
:1047A00000221A70704700BF88040020024B18785E
:1047B00000221A70704700BFAA040020024B00229A
:1047C0001A70024B18787047AA040020AB0400202E
:1047D00038B50D46FCF75EFA03E00449FCF766FBCA
:1047E00025466B1EDCB2002DF7D138BD00002041FC
:1047F0002DE9F84300244FF001094F46A04600265A
:104800000DE0303D3946E8B2FFF7E2FF01463046A1
:10481000FCF790F906460137FFB20134E4B2154BBC
:104820001B78A3421ED9144B1D5D2D2D14D0B8F159
:10483000000FE6D12E2D12D010493046FCF782FA37
:1048400006462846FCF72AFA3146FCF773F90C496C
:10485000FCF76EF90646E0E74FF0FF39DDE74FF071
:104860000108DAE74846FCF719FA3146FCF76AFA1C
:10487000BDE8F883BC030020240400200000204190
:104880000000404200B585B00023019302930393DA
:104890001848194A02604FF48072826003730375EE
:1048A0004FF46022C26143600223036100F05AFAB0
:1048B000B0B908230193012302930223039301A9B2
:1048C0000C4800F0A5F870B9092301930223029364
:1048D00001A9084800F09CF840B905B05DF804FB58
:1048E000FCF716FCE5E7FCF713FCEDE7FCF710FC22
:1048F000F3E700BFAC0400200024014010B586B0EF
:104900000023029303930493059302681D4B9A427C
:1049100001D006B010BD044603F56C439A6942F419
:1049200000729A619A6902F400720092009A9A6980
:1049300042F008029A619B6903F008030193019B0E
:1049400003230293039302A90F48FDF7A7FE0F4824
:104950000F4B03600023436083608022C2604FF4EA
:10496000807202614FF48062426120228261C361E1
:10497000FDF7C2FF18B9054B23625C62C9E7FCF77B
:10498000C7FBF8E700240140000C0140DC040020D4
:1049900008000240704708B5436A9A6A12F0500F47
:1049A0001ED19A6A42F400729A621A68926802F4FE
:1049B0006022B2F5602F03D01846FFF7EBFF08BD69
:1049C0001A7B002AF8D19A6A22F480729A629A6A53
:1049D00012F4805FF0D19A6A42F001029A62EBE72A
:1049E0001B6A1B6B9847EAE7704708B5406AFFF7F8
:1049F000FBFF08BD704708B5406A836A43F0400377
:104A00008362C36A43F00403C362FFF7F3FF08BD88
:104A100030B482B00022019290F82420012A00F0E4
:104A200091800346012280F824204A68062A2DD866
:104A30000468606B02EB8202053A4FF01F0C0CFA1F
:104A400002FC20EA0C000D6805FA02F202436263E0
:104A50000A68092A3AD91C68E06802EB42021E3A49
:104A60004FF0070C0CFA02FC20EA0C008D6805FAE6
:104A700002F20243E2600A68103A012A36D90020A5
:104A8000002283F8242002B030BC70470C2A0ED8D4
:104A90000568286B02EB8202233A1F24944020EA27
:104AA00004000C6804FA02F202432A63D0E70568A6
:104AB000E86A02EB8202413A1F24944020EA040093
:104AC0000C6804FA02F20243EA62C1E71C6820693A
:104AD00002EB42024FF0070C0CFA02FC20EA0C0039
:104AE0008D6805FA02F202432261C4E71A6816488B
:104AF000824205D09A6A42F020029A620120BFE702
:104B0000906810F4000F1BD1906840F40000906092
:104B10000A68102A01D00020B2E70C4A12680C493A
:104B2000A1FB0212920C02EB82025200019202E0FF
:104B3000019A013A0192019A002AF9D100209FE7D7
:104B400000209DE702209EE700240140080000208D
:104B500083DE1B4330B583B00023019303689A685A
:104B600012F0010F33D104469A6842F001029A60B4
:104B7000184B1B68184AA2FB03239B0C019302E00D
:104B8000019B013B0193019B002BF9D1FDF750F9EB
:104B9000054623689B6813F0010F16D1FDF748F90D
:104BA000431B022BF5D923689B6813F0010FF0D14A
:104BB000A36A43F01003A362E36A43F00103E362D4
:104BC000002384F82430012002E0002000E00020CF
:104BD00003B030BD0800002083DE1B43F8B5044657
:104BE0000D46164601684448814259D0434B9942CC
:104BF00056D094F82430012B7CD0012384F8243043
:104C00002046FFF7A7FF074600286ED1A16A21F4CE
:104C1000706121F0010141F48071A1622268374B7B
:104C20009A4244D0A36A23F48013A362536813F416
:104C3000806F05D0A36A23F4405343F48053A362EA
:104C4000A36A13F4805F48D0E36A23F00603E362AB
:104C5000002384F82430236A294A9A62236A294A65
:104C6000DA62236A284A1A6323686FF002021A6024
:104C70002268936843F480739360216833462A4620
:104C80004C31206AFDF76EFE23689A6802F46022B8
:104C9000B2F5602F24D09A6842F480129A6027E01F
:104CA000154B5B6813F4702FA3D0012720E0A3F508
:104CB00080635B6813F4702FB4D0A36A43F480134D
:104CC000A3620D4B5B6813F4806FB9D0A36A23F421
:104CD000405343F48053A362B2E70023E362B7E793
:104CE0009A6842F4A0029A6002E0002384F824301B
:104CF0003846F8BD0227FBE70024014000280140A8
:104D000097490008EB490008F749000838B50368DF
:104D10009A6812F0010F01D1002038BD04469A684C
:104D200022F001029A60FDF783F8054623689B682C
:104D300013F0010F13D0FDF77BF8431B022BF5D9BD
:104D400023689B6813F0010FF0D0A36A43F01003AF
:104D5000A362E36A43F00103E3620120DDE7002080
:104D6000DBE7000000287BD070B50446836A002B87
:104D70004DD02046FFF7CAFFA36A13F0100369D194
:104D8000002867D1A26A22F4885222F0020242F07F
:104D90000202A2626268E1690A43217B42EA41029F
:104DA000A568B5F5807F02D0012D36D01D46267D41
:104DB000012E35D02668716821F46941294371605C
:104DC0002568AE68274931401143A960A168B1F553
:104DD000807F01D0012902D12369013B1B05256891
:104DE000E96A21F470010B43EB62236899681E4B5A
:104DF0000B409A4225D0A36A23F0120343F010031C
:104E0000A362E36A43F00103E362012027E0C36287
:104E100080F82430FFF772FDABE74FF48075C6E7EA
:104E200031B9A169013945EA413141F40065C1E771
:104E3000A16A41F02001A162E16A41F00101E16251
:104E4000B8E70023E362A36A23F0030343F00103FE
:104E5000A36204E0A36A43F01003A362012070BDC3
:104E600001207047FDF7E1FFFE0E1FFF70B582B015
:104E70000023019390F82430012B72D004460123C3
:104E800080F82430FFF742FF2046FFF763FE054617
:104E900028B1002384F82430284602B070BDA36AEC
:104EA00023F4885323F0020343F00203A3622E4B42
:104EB0001E680220FDF786FBB6FBF0F67600019631
:104EC00002E0019B013B0193019B002BF9D1226879
:104ED000936843F008039360FCF7AAFF0646236833
:104EE0009A6812F0080F14D0FCF7A2FF801B0A2862
:104EF000F5D923689B6813F0080FF0D0A36A23F05C
:104F0000120343F01003A362002384F82430012528
:104F1000C2E79A6842F004029A60FCF789FF0646ED
:104F200023689B6813F0040F14D0FCF781FF801BEB
:104F30000A28F5D923689B6813F0040FF0D0A36A00
:104F400023F0120343F01003A362002384F82430FB
:104F50000125A1E7A36A23F0030343F00103A36241
:104F600097E7022598E700BF0800002000B583B04E
:104F70000A4B5A6942F001025A615B6903F001036E
:104F80000193019B002211460B20FDF749FE0B20E7
:104F9000FDF77EFE03B05DF804FB00BF0010024089
:104FA000FDF798FE0B480C490C4A002302E0D45848
:104FB000C4500433C4188C42F9D3094A094C002365
:104FC00001E013600432A242FBD300F015F8FCF7B5
:104FD000E3F8704700000020DC010020D0940008B6
:104FE000DC01002030050020FEE70000014B1868BE
:104FF000704700BF0C00002070B500260C4D0D4C12
:10500000641BA410A64209D103F030FF00260A4D0C
:105010000A4C641BA410A64205D170BD55F8043B90
:1050200098470136EEE755F8043B98470136F2E71A
:10503000C8940008C8940008C8940008CC940008DC
:1050400003460244934200D1704703F8011BF9E77D
:10505000002B2DE9F0471F46BBBF03F100431F465D
:1050600000232D2388B01446129A109D1370149BB0
:10507000DDF84CA023F02008B8F1460F05D0B8F1B8
:10508000450F00D10135022300E0032307AA049253
:1050900006AACDE902A2CDE9003522463B4600F042
:1050A000DBFCB8F1470F064602D1119BDB0722D586
:1050B000B8F1460F06EB050910D13378302B0AD131
:1050C0000022002320463946FBF76EFC18B9C5F1D3
:1050D0000105CAF80050DAF8003099440022002394
:1050E00020463946FBF760FC08B1CDF81C90302211
:1050F000079B4B4507D33046079B159A9B1B1360B4
:1051000008B0BDE8F087591C07911A70F0E7034614
:10511000F7B5002903F8022BB6BF2D222B224942F6
:10512000092942702BDD0DF10704A4460A2791FBE3
:10513000F7F60A46A64607FB1615632A05F1300561
:10514000314604F1FF340EF8015CF0DC3031AEF191
:10515000020504F8011C2946441C61450AD30DF1DF
:105160000902A2EB0E02654588BF00221344181AFB
:1051700003B0F0BD11F8012B04F8012FEDE7302347
:1051800030318370C170031DF1E700002DE9F04F4D
:1051900091B00C46DDF8688016461F46054601F0C2
:1051A0003FFB036818460993FAF7D2FF00230E93DA
:1051B000D8F800300A90073323F0070303F1080200
:1051C00094F81890D4F800B0C8F80020D3E9002370
:1051D000C4E91223D4E9128A2AF000430B934FF05A
:1051E000FF3240469C4B0B99FBF710FC70BB4FF015
:1051F000FF324046984B0B99FBF7EAFB30BB00228D
:10520000002340465146FBF7D9FB10B12D2384F80B
:105210004330924B9248B9F1470F94BF984680466D
:1052200003234FF0000A23612BF00403236033466D
:105230002146284600970FAA00F0D4F9013040F02B
:1052400090804FF0FF3011B0BDE8F08F42465346DA
:1052500040465146FBF7DAFB48B1BAF1000FB8BF40
:105260002D238048B8BF84F843307F4BD3E7636871
:1052700009F0DF015A1C42D1062363600022069226
:105280000EAACDE904920DAA4BF4806303920DF1AE
:105290003302CDE901322360636842460093284619
:1052A00053460B91FFF7D4FE0B99804647290D9981
:1052B00008D1C81C02DB6368994240DDA9F10209EC
:1052C0005FFA89F9B9F1650F1FD84A46013904F12F
:1052D00050000D91FFF71BFF0E9A82461318012A0A
:1052E000236102DC2268D20701D5013323619DF8D6
:1052F0003330002B9BD02D2384F8433097E7472988
:10530000BCD1002BBAD10123B7E7B9F1660F18D190
:10531000002963680BDD216113B92268D00702D52B
:1053200001330B4423614FF0000AA165DFE713B995
:105330002268D20701D50233F4E70123F2E74FF0E8
:1053400067090E9B994205DB23682161D807EAD5DE
:105350004B1CE7E70029CCBF0122C1F10202134434
:10536000E0E723685A0507D42369424631462846B8
:10537000B84701302BD164E7B9F1650F40F2DD8009
:10538000D4E9120100220023FBF70EFB002833D0E2
:10539000012331462846354AB84701303FF451AF22
:1053A000DDE90D239A4202DB2368D8070FD5DDE93A
:1053B000092331462846B84701303FF442AF4FF049
:1053C000000804F11A090E9B013B434509DC2368E0
:1053D0009B0700F10281E0680F9B9842B8BF184616
:1053E00031E701234A4631462846B84701303FF4A9
:1053F00028AF08F10108E6E70D9B002B38DC0123FC
:1054000031462846194AB84701303FF41AAFDDE962
:105410000D23134302D12368D907D8D5DDE9092329
:1054200031462846B84701303FF40BAF4FF0000932
:1054300004F11A0A0D9B5B424B4501DC0E9B94E77D
:105440000123524631462846B84701303FF4F9AEB1
:1054500009F10109EEE700BFFFFFEF7FD08E0008E2
:10546000D48E0008DC8E0008D88E0008E08E00087C
:105470000E9AA36D9A42A8BF1A46002A914637DCBD
:105480004FF0000B29EAE97904F11A02D4F858A088
:10549000AAEB09035B4533DCDDE90D239A423BDBD4
:1054A0002368DA0738D40E9B0D99A3EB0A02A3EB0D
:1054B00001099145A8BF9146B9F1000F34DC4FF0C6
:1054C000000829EAE97904F11A0ADDE90D239B1A9B
:1054D000A3EB090343457FF77AAF012352463146D8
:1054E0002846B84701303FF4ACAE08F10108ECE7BC
:1054F0001346314642462846B8470130C0D1A0E69F
:105500000123314628460B92B84701303FF499AE4B
:105510000B9A0BF1010BB9E73146DDE90923284667
:10552000B8470130BFD18CE64B463146284608EBE0
:105530000A02B8470130C2D183E60E9A012A01DC83
:10554000DB0737D50123424631462846B8470130AC
:105550003FF477AEDDE9092331462846B8470130EC
:105560003FF46FAED4E9120100220023FBF71CFACE
:10557000D8B90E9B08F10102013B31462846B847D5
:1055800001300ED15DE601234A4631462846B84730
:1055900001303FF456AE08F101080E9B013B434534
:1055A000F1DC534604F15002E0E64FF0000804F14C
:1055B0001A09F2E701234246DFE701234A46314652
:1055C0002846B84701303FF43CAE08F10108E368D3
:1055D0000F995B1A4345F0DCFDE64FF0000804F13B
:1055E0001909F4E72DE9F047164699468A680B69D0
:1055F00007469342B8BF1346336091F843200C46E8
:10560000DDF820800AB1013333602368990642BF78
:10561000336802333360256815F0060506D104F1BE
:10562000190AE36832689B1AAB4228DC94F84320DD
:10563000131E226818BF012392062DD4494638460E
:1056400004F14302C047013020D02368E56803F02D
:105650000603042B18BF002532684FF00006A3682C
:1056600008BFAD1A226908BF25EAE5759342C4BF99
:105670009B1AED181A34B5421AD1002008E0012314
:10568000524649463846C047013003D14FF0FF30FB
:10569000BDE8F0870135C4E73020E11881F8430008
:1056A0005A1C94F845102244023382F84310C5E78F
:1056B0000123224649463846C0470130E6D001362C
:1056C000D9E700002DE9FF470F7E9146782F8046ED
:1056D0000C469A460C9D01F1430207D8622F0AD866
:1056E000002F00F0D980582F00F0A48004F142056B
:1056F00084F842703AE0A7F16303152BF6D801A1B4
:1057000051F823F05D57000871570008ED56000866
:10571000ED560008ED560008ED56000871570008D8
:10572000ED560008ED560008ED560008ED5600084D
:105730007F580008A157000861580008ED5600087E
:10574000ED560008A1580008ED560008A1570008C2
:10575000ED560008ED560008695800082B681A1D20
:105760001B682A6004F1420584F842300123A4E05A
:1057700020682968060601F104030AD50E682B602B
:10578000002E03DA2D23764284F843300A235E4844
:1057900019E00E6810F0400F2B6018BF36B2EFE72B
:1057A0002B682068191D2960010601D51E6802E0DA
:1057B0004606FBD51E886F2F0CBF08230A235248CC
:1057C000002184F843106568002DA8BF2168A560FA
:1057D000A4BF21F0040121600EB9002D4DD0154663
:1057E000B6FBF3F103FB1167C75D05F8017D374692
:1057F000BB420E46F4D9082B0BD12368DE0708D52F
:10580000236961689942DEBF302305F8013C05F148
:10581000FF35521B22614B4621464046CDF800A081
:1058200003AAFFF7DFFE01304CD14FF0FF3004B088
:10583000BDE8F087344881F845702968236851F83D
:10584000046B29601D0614D5DF0744BF43F0200315
:1058500023601EB9236823F0200323601023AFE7E1
:10586000236843F0200323607823284884F84530D8
:10587000E3E7590648BFB6B2E6E71546BBE72B6833
:105880002668181D6169286035061B6801D51960F6
:1058900002E07006FBD51980002315462361BAE7A4
:1058A0002B6800211A1D2A601D686268284600F0D6
:1058B000C7FF08B1401B606063682361002384F860
:1058C0004330A8E72A46494640462369D04701307D
:1058D000ABD023689B0713D4E068039B9842B8BF02
:1058E0001846A4E70123324649464046D0470130D6
:1058F0009BD00135E36803995B1AAB42F2DCEBE71E
:10590000002504F11906F5E7E28E0008F38E000881
:105910000FB40A4B13B51C6824B1A36913B9204610
:1059200000F0E0FE05AB2046049AA168019301F067
:105930003DFC02B0BDE8104004B070470C000020F0
:105940002DE9F74F03690C690746A342C0F2828034
:10595000013C00F1140501F1140805EB84030193E7
:1059600058F8243055F8242001339A42B2FBF3F65C
:105970004FEA840B08EB840931D34FF0000E404608
:10598000AC46F24650F8042B93B206FB03E3120C2C
:105990004FEA134E9BB206FB02E2AAEB0303DCF8CC
:1059A00000A04FEA124E1FFA8AFA5344DCF800A016
:1059B00092B2C2EB1A4202EB23429BB243EA024389
:1059C00081454FEA224A4CF8043BDBD255F80B30B4
:1059D0002BB9019B043B9D421A462FD33C613846AC
:1059E00001F0C8F9002825DB28464FF0000C0136ED
:1059F00058F8041BD0F800E08BB2ACEB03031FFA9D
:105A00008EF213440A0CC2EB1E4202EB23429BB2FD
:105A100043EA0243C1454FEA224C40F8043BE7D237
:105A200055F8242005EB840322B9043B9D421A4615
:105A30000AD33C61304603B0BDE8F08F1268043BE6
:105A4000002ACBD1013CC6E71268043B002AF0D102
:105A5000013CEBE70020EEE72DE9F04F16461F462C
:105A6000446A99B00546CDE90467DDF8948074B9BD
:105A7000102000F0DDFE0246686220B9EA21A84B42
:105A8000A84801F0E9FDC0E901440460C4606B6A04
:105A9000196851B15A68012393404A608B602846C7
:105AA00000F02AFF00226B6A1A603B1EAFBF002382
:105AB000012223F000430593A8BFC8F80030DDF8A9
:105AC0001490994BB8BFC8F8002033EA090319D1E4
:105AD00042F20F73249A1360C9F31303334300F0A7
